S011000046696E616C50726F6A2E737265638E
S11300000C945A000C9477000C9477000C94A8027A
S11300100C9477000C9477000C9477000C94770080
S11300200C9477000C9477000C9477000C94770070
S11300300C9477000C9477000C9477000C94770060
S11300400C9477000C9477000C9477000C94500473
S11300500C9477000C9477000C9477000C94770040
S11300600C9477000C9477000C9477000C94770030
S11300700C9477000C9477000C9477000C94770020
S11300800C9477000C9477000C9477000C94770010
S11300900C9477000C9477000C9477000C94770000
S11300A00C9477000C9477000C9477000C947700F0
S11300B00C94770011241FBECFEFD8E0DEBFCDBF74
S11300C011E0A0E0B1E0ECE1FCE002C005900D928B
S11300D0A832B107D9F721E0A8E2B1E001C01D922E
S11300E0A73CB207E1F70E94D9020C940C060C94C9
S11300F000008EBD0DB407FEFDCF089520E030E072
S11301000EC0FC01E20FF31F108214AEDF01A858E9
S1130110BF4F1C92EC54FF4F10822F5F3F4F2617A6
S113012037077CF3089580E00E94790080E00E9404
S1130130790080E00E94790080E00E9479000895AF
S11301408FEF0E9479008FEF0E9479008FEF0E9459
S113015079008FEF0E94790008951F93CF93DF9366
S1130160C62FD42F122F0E947900812F0E9479006C
S11301708D2F0E9479008C2F0E947900DF91CF91FE
S11301801F9108950F931F93CF93DF93EC018B017D
S11301900E949300B801CE010E947E00C0E0D0E02E
S11301A007C020E040E060E08FEF0E94AD002196A0
S11301B0C017D107B4F30E94A000DF91CF911F9123
S11301C00F910895EF920F936C33710568F4FC015D
S11301D0E60FF71F408324AFDF01A858BF4F0C93ED
S11301E0EC54FF4FE08204C082E191E00E9442059A
S11301F00F91EF900895CF92DF92EF92FF920F93B9
S11302001F93CF93DF938C017B010E949300C0E086
S1130210D0E0C12CD12C21C0F801EC0FFD1F80814E
S11302208823A1F0F801EC0FFD1F9F012C543F4FD0
S1130230AF0148585F4FD9012C91DA014C9164AD5C
S11302400E94AD00CC24C394D12C06C020E040E031
S113025060E08FEF0E94AD002196CE15DF05E4F239
S1130260CD2811F00E94A000DF91CF911F910F9132
S1130270FF90EF90DF90CF9008950E94FE04907855
S113028099231CF401979F6F019608952F923F9232
S11302904F925F926F927F928F929F92AF92BF9292
S11302A0CF92DF92EF92FF920F931F93CF93DF933E
S11302B000D000D01F92CDB7DEB72C015B014A01FC
S11302C069011B830A830E943D0189830E943D01C9
S11302D0F82E0E943D01182F14012A183B08612CA6
S11302E0712C35C06C817D81660D771D6A0D7B1D77
S11302F08616970664F0E12E0F2D29814FEFC20177
S11303000E94E2006A817B81C2010E94FB008C8111
S11303109D8101969D838C8302C01D821C828C81E9
S11303209D818C159D05F4F2B3016A0D7B1DC401FA
S11303308C199D09861797073CF0E12C00E020E01A
S11303404FEFC2010E94E2009FEF691A790A62141A
S113035073041CF3612C712C38C06C817D81660D93
S1130360771D680D791D6A157B0564F0E12E0F2D4C
S113037029814FEFC2010E94E2006A817B81C201A0
S11303800E94FB008C819D8101979D838C8302C018
S11303901D821C828C819D819195819591098C157A
S11303A09D05DCF2B301680D791DC5018C0D9D1D01
S11303B0681779073CF0E12C00E020E04FEFC20120
S11303C00E94E20091E0691A71088827992786192A
S11303D0970982159305E4F20F900F900F900F90F8
S11303E00F90DF91CF911F910F91FF90EF90DF90CD
S11303F0CF90BF90AF909F908F907F906F905F90C1
S11304004F903F902F900895CF92DF92EF92FF92FA
S11304100F931F93CF93DF936C017B0100E010E0F7
S113042016C00E943D01E601C00FD11F88830E94BF
S11304303D018CAF0E943D01FE01E858FF4F8083CF
S11304400E943D01CC54DF4F88830F5F1F4F0E1570
S11304501F053CF3B701C6010E94FB00DF91CF9159
S11304601F910F91FF90EF90DF90CF9008957F92AE
S11304708F929F92AF92BF92CF92DF92EF92FF92B0
S11304800F931F93CF93DF936C014B010E943D01A7
S1130490782E0E943D01F82E0E943D01182F0F2E48
S11304A0FBE3AF2EB12CF02DC0E0D0E0E12E0F2DF8
S11304B0272D4FEFBE01C6010E94E200272D4FEF0A
S11304C0B501C6010E94E200219681E0A81AB10894
S11304D0B401C6010E94FB00CD31D10539F70E9459
S11304E03D01782E0E943D01F82E0E943D01182FF7
S11304F00F2EFEE1AF2EB12CF02DE12E0F2D272D66
S11305004FEFBE01C6010E94E200272D4FEFB50157
S1130510C6010E94E20021978FEFA81AB80AB4011D
S1130520C6010E94FB00209741F7DF91CF911F91F4
S11305300F91FF90EF90DF90CF90BF90AF909F907E
S11305408F907F9008958CE284B983E58CBD0895E3
S11305501F920F920FB60F9211248F939F931F999E
S113056013C080912801909129010196909329014B
S1130570809328018091280190912901039721F407
S113058010922901109228019F918F910F900FBE14
S11305900F901F90189584B18F7784B9EBE6F0E043
S11305A0808180688083E8E6F0E0808181608083D8
S11305B00895CF93DF93CDB7DEB7C05FD1090FB6EF
S11305C0F894DEBF0FBECDBF81E00E949B040E9461
S11305D0CB020E94A3027894E1ECF0E08081806871
S11305E0808380E88AB98BB96CE370E0CE01019610
S11305F00E947E006CE370E0CE0101960E94C2006E
S1130600EE24E394F12C03C0EE24E394F12C8091C6
S1130610280190912901892BC1F4E114F10441F0DE
S11306206CE370E0CE0101960E94C200E12CF12C33
S11306300CE310E024E030E04BE350E060E070E0D5
S1130640CE0101960E94460113C080912801909129
S11306502901019739F46CE370E0CE0101960E9400
S1130660370206C06CE370E0CE0101960E940402DA
S11306708091280190912901892B31F6C8CFCF931D
S1130680C82F873069F42091C5013091C60147E035
S113069050E061E070E080E291E00E940E052AC023
S11306A08A3019F48DE00E943F0380917C018823F5
S11306B0D9F080917F0190918001FC01EF57FE4FAA
S11306C0C08301968F739078992324F40197806CEA
S11306D09F6F01969093800180937F01E1ECF0E09D
S11306E080818062808306C08091C00085FFFCCF3A
S11306F0C093C60080E090E0CF910895EF92FF92FE
S11307000F931F93CF93DF9320917A0130917B0154
S1130710232B09F0A3C08C01CAE2D1E09091C00060
S11307209923E4F78091C00084FDABC08091C000A0
S113073083FDAAC08091C6008D3009F48AE08A3016
S113074059F48883B8010E943F038AE291E09093B0
S11307507B0180937A0182C0893009F480E290EEB3
S1130760980F9F3510F0803A98F091E0C937D90777
S113077029F4B80187E00E943F03D0CF7E01EFEF58
S1130780EE1AFE0A8883B8010E943F03E701C6CF30
S1130790823119F130F4833009F479C0883049F09A
S11307A0BDCF873109F44EC08F3719F08531B9F1C7
S11307B0B5CFF1E0CA32DF0709F008F4AFCFB801D2
S11307C088E00E943F03B80180E20E943F03B80121
S11307D088E00E943F032197A1CFB8018DE00E94D9
S11307E03F030F2EFAE2EF2EF1E0FF2EF02D06C0AC
S11307F0B801F70181917F010E943F03EC16FD06C9
S1130800B8F38CCFB80188E00E943F03B80180E2BE
S11308100E943F03B80188E00E943F032197F1E062
S1130820CA32DF0709F070F779CFB80188E00E9477
S11308303F03B80180E20E943F03B80188E00E94B0
S11308403F03219781E0CA32D80709F008F466CF44
S1130850FE0131978081803241F760CFE0917A01C7
S1130860F0917B01CF01019690937B0180937A01F3
S113087080818A3021F410927B0110927A0190E0F9
S113088008C08EEF9FEF05C08FEF9FEF02C08FEF80
S11308909FEFDF91CF911F910F91FF90EF900895FB
S11308A01F920F920FB60F9211242F933F938F93A1
S11308B09F93EF93FF9320917D0130917E0180916E
S11308C07F01909180012817390751F1E0917D0152
S11308D0F0917E01EF57FE4F80818093C600809196
S11308E07D0190917E0101968F739078992324F471
S11308F00197806C9F6F019690937E0180937D0198
S113090020917D0130917E0180917F019091800141
S11309102817390729F4E1ECF0E080818F7D80838A
S1130920FF91EF919F918F913F912F910F900FBE67
S11309300F901F90189597E69093C40098E19093B8
S1130940C100E1ECF1E024E031E033832283318320
S1130950208335832483882321F081E080937C01E4
S1130960789408958F929F92AF92BF92CF92DF9224
S1130970EF92FF92CF93DF93EC01688179818A81B2
S11309809B81611571058105910521F464E279ED7E
S11309908BE597E02DE133EF41E050E00E947205D2
S11309A049015A019B01AC01A7EAB1E40E949105F7
S11309B06B017C01ACEEB4EFA50194010E949F058C
S11309C0DC01CB018C0D9D1DAE1DBF1DB7FF03C007
S11309D00197A109B04888839983AA83BB839F7731
S11309E0DF91CF91FF90EF90DF90CF90BF90AF90C9
S11309F09F908F9008950E94B204089580E091E042
S1130A000E94B2040895A0E0B0E0809300019093A6
S1130A100101A0930201B09303010895A0E0B0E0A6
S1130A20E4E1F5E00C94AA055B014A017901D901DE
S1130A3013962C9121FF1DC0C0E0D0E0C815D90544
S1130A40D9F08C016C01CA0CDB1CC8010C151D0506
S1130A5071F00F5F1F4FD7011896ED91FC91199714
S1130A60B701DC018C910995892B79F305C0219696
S1130A70E5CF80E090E001C0CE01CDB7DEB7ECE079
S1130A800C94C6050F931F93CF93DF93E091C3019A
S1130A90F091C401238121FF1BC08C01D0E0C0E090
S1130AA0F80181918F016091C3017091C401DB0150
S1130AB01896ED91FC911997882331F00995892BAB
S1130AC079F3DFEFCFEFECCF8AE00995892B19F0AA
S1130AD08FEF9FEF02C08D2F9C2FDF91CF911F913D
S1130AE00F910895052E97FB1EF400940E9489052A
S1130AF057FD07D00E94DB0507FC03D04EF40C948D
S1130B00890550954095309521953F4F4F4F5F4F44
S1130B10089590958095709561957F4F8F4F9F4F65
S1130B2008950E94FD05A59F900DB49F900DA49F6C
S1130B30800D911D11240895B7FF0C9491050E9416
S1130B409105821B930B08952F923F924F925F92CF
S1130B506F927F928F929F92AF92BF92CF92DF92C9
S1130B60EF92FF920F931F93CF93DF93CDB7DEB72E
S1130B70CA1BDB0B0FB6F894DEBF0FBECDBF0994C2
S1130B802A88398848885F846E847D848C849B8419
S1130B90AA84B984C884DF80EE80FD800C811B8127
S1130BA0AA81B981CE0FD11D0FB6F894DEBF0FBE56
S1130BB0CDBFED010895A1E21A2EAA1BBB1BFD01B6
S1130BC00DC0AA1FBB1FEE1FFF1FA217B307E40728
S1130BD0F50720F0A21BB30BE40BF50B661F771F80
S1130BE0881F991F1A9469F7609570958095909560
S1130BF09B01AC01BD01CF010895A29FB001B39F39
S1130C00C001A39F700D811D1124911DB29F700D11
S10F0C10811D1124911D0895F894FFCF5C
S1130C1C0100000000000003000000003F037E03FD
S1130C2C0000496E76616C696420496E64657800D5
S10B0C3C2A72696E672A0A009E
S9030000FC
