:100000000C945A000C94F4000C9477000C94770034
:100010000C9477000C9477000C9477000C94770084
:100020000C9477000C9477000C9477000C94770074
:100030000C9477000C9477000C9477000C94770064
:100040000C9477000C9477000C9477000C94450284
:100050000C9477000C9477000C9477000C94770044
:100060000C9477000C9477000C9477000C94770034
:100070000C9477000C9477000C9477000C94770024
:100080000C9477000C9477000C9477000C94770014
:100090000C9477000C9477000C9477000C94770004
:1000A0000C9477000C9477000C9477000C947700F4
:1000B0000C94770011241FBECFEFD8E0DEBFCDBF78
:1000C00011E0A0E0B1E0E8E2F6E002C005900D9298
:1000D000A631B107D9F721E0A6E1B1E001C01D9238
:1000E000A33BB207E1F70E940A010C9412030C949F
:1000F00000008EBD0DB407FEFDCF089520E030E076
:100100000EC0FC01E20FF31F108214AEDF01A858ED
:10011000BF4F1C92EC54FF4F10822F5F3F4F2617AA
:1001200037077CF3089580E00E94790080E00E9408
:10013000790080E00E94790080E00E9479000895B3
:100140008FEF0E9479008FEF0E9479008FEF0E945D
:1001500079008FEF0E94790008951F93CF93DF936A
:10016000C62FD42F122F0E947900812F0E94790070
:100170008D2F0E9479008C2F0E947900DF91CF9102
:100180001F9108950F931F93CF93DF93EC018B0181
:100190000E949300B801CE010E947E00C0E0D0E032
:1001A00007C020E040E060E08FEF0E94AD002196A4
:1001B000C017D107B4F30E94A000DF91CF911F9127
:1001C0000F9108958CE284B983E58CBD089587B1C1
:1001D0008E7F87B910927C00EAE7F0E087E88083A1
:1001E00080818064808308951F920F920FB60F92D2
:1001F00011240F900FBE0F901F9018958AB18B7F1E
:100200008AB98DB381608DBBE9E6F0E080818260C0
:1002100080830895CF93DF93CDB7DEB7C05FD10958
:100220000FB6F894DEBF0FBECDBF81E00E949002F2
:100230000E94E7000E94FE000E94E2007894E1EC38
:10024000F0E080818068808380E88AB98BB96CE3B4
:1002500070E0CE0101960E947E006CE370E0CE015A
:1002600001960E94C200FFCFCF93C82F873069F458
:100270002091B1013091B20147E050E061E070E0BF
:100280008EE091E00E94A7022AC08A3019F48DE026
:100290000E943401809168018823D9F080916B011C
:1002A00090916C01FC01E359FE4FC08301968F735E
:1002B0009078992324F40197806C9F6F0196909316
:1002C0006C0180936B01E1ECF0E0808180628083BF
:1002D00006C08091C00085FFFCCFC093C60080E0BF
:1002E00090E0CF910895EF92FF920F931F93CF93D9
:1002F000DF932091660130916701232B09F0A3C0A1
:100300008C01C6E1D1E09091C0009923E4F780917F
:10031000C00084FDABC08091C00083FDAAC0809165
:10032000C6008D3009F48AE08A3059F48883B80118
:100330000E94340186E191E0909367018093660109
:1003400082C0893009F480E290EE980F9F3510F05A
:10035000803A98F091E0C536D90729F4B80187E0D2
:100360000E943401D0CF7E01EFEFEE1AFE0A88839F
:10037000B8010E943401E701C6CF823119F130F48F
:10038000833009F479C0883049F0BDCF873109F452
:100390004EC08F3719F08531B9F1B5CFF1E0C631D4
:1003A000DF0709F008F4AFCFB80188E00E943401FC
:1003B000B80180E20E943401B80188E00E94340153
:1003C0002197A1CFB8018DE00E9434010F2EF6E1F4
:1003D000EF2EF1E0FF2EF02D06C0B801F70181915C
:1003E0007F010E943401EC16FD06B8F38CCFB801F2
:1003F00088E00E943401B80180E20E943401B80113
:1004000088E00E9434012197F1E0C631DF0709F04E
:1004100070F779CFB80188E00E943401B80180E21A
:100420000E943401B80188E00E943401219781E0E4
:10043000C631D80709F008F466CFFE0131978081F4
:10044000803241F760CFE0916601F0916701CF0102
:100450000196909367018093660180818A3021F430
:10046000109267011092660190E008C08EEF9FEF36
:1004700005C08FEF9FEF02C08FEF9FEFDF91CF910D
:100480001F910F91FF90EF9008951F920F920FB65A
:100490000F9211242F933F938F939F93EF93FF938A
:1004A0002091690130916A0180916B0190916C01FA
:1004B0002817390751F1E0916901F0916A01E35978
:1004C000FE4F80818093C6008091690190916A01FE
:1004D00001968F739078992324F40197806C9F6F15
:1004E000019690936A01809369012091690130918E
:1004F0006A0180916B0190916C012817390729F4EA
:10050000E1ECF0E080818F7D8083FF91EF919F91FE
:100510008F913F912F910F900FBE0F901F901895C4
:1005200097E69093C40098E19093C100EDEAF1E062
:1005300020E031E033832283318320833583248399
:10054000882321F081E08093680178940895A0E0E9
:10055000B0E0EDEAF2E00C94E1025B014A017901BE
:10056000D90113962C9121FF1DC0C0E0D0E0C81521
:10057000D905D9F08C016C01CA0CDB1CC8010C1523
:100580001D0571F00F5F1F4FD7011896ED91FC917B
:100590001997B701DC018C910995892B79F305C076
:1005A0002196E5CF80E090E001C0CE01CDB7DEB767
:1005B000ECE00C94FD022F923F924F925F926F926B
:1005C0007F928F929F92AF92BF92CF92DF92EF92E3
:1005D000FF920F931F93CF93DF93CDB7DEB7CA1B64
:1005E000DB0B0FB6F894DEBF0FBECDBF09942A888F
:1005F000398848885F846E847D848C849B84AA8437
:10060000B984C884DF80EE80FD800C811B81AA81C3
:10061000B981CE0FD11D0FB6F894DEBF0FBECDBF8E
:08062000ED010895F894FFCFED
:1006280000000003000000003401730100002A727A
:06063800696E672A0A004A
:00000001FF
