:100000000C945A000C94C1030C9477000C94770064
:100010000C9477000C9477000C9477000C94770084
:100020000C9477000C9477000C9477000C94770074
:100030000C9477000C9477000C9477000C94770064
:100040000C9477000C9477000C9477000C94340790
:100050000C9477000C9477000C9477000C94770044
:100060000C9477000C9477000C9477000C94770034
:100070000C9477000C9477000C9477000C94770024
:100080000C9477000C9477000C9477000C94770014
:100090000C9477000C9477000C9477000C94770004
:1000A0000C9477000C9477000C9477000C947700F4
:1000B0000C94770011241FBECFEFD8E0DEBFCDBF78
:1000C00011E0A0E0B1E0E2EEF9E102C005900D928E
:1000D000A639B107D9F723E0A6E9B1E001C01D9226
:1000E000A137B207E1F70E94C0050C94EF0C0C9405
:1000F00000008EBD0DB407FEFDCF089520E030E076
:100100000EC0FC01E20FF31F108214AEDF01A858ED
:10011000BF4F1C92EC54FF4F10822F5F3F4F2617AA
:1001200037077CF3089580E00E94790080E00E9408
:10013000790080E00E94790080E00E9479000895B3
:100140008FEF0E9479008FEF0E9479008FEF0E945D
:1001500079008FEF0E94790008951F93CF93DF936A
:10016000C62FD42F122F0E947900812F0E94790070
:100170008D2F0E9479008C2F0E947900DF91CF9102
:100180001F9108950F931F93CF93DF93EC018B0181
:100190000E949300B801CE010E947E00C0E0D0E032
:1001A00007C020E040E060E08FEF0E94AD002196A4
:1001B000C017D107B4F30E94A000DF91CF911F9127
:1001C0000F910895EF920F936C33710568F4FC0161
:1001D000E60FF71F408324AFDF01A858BF4F0C93F1
:1001E000EC54FF4FE08204C08AE191E00E94940940
:1001F0000F91EF900895CF92DF92EF92FF920F93BD
:100200001F93CF93DF938C017B010E949300C0E08A
:10021000D0E0C12CD12C21C0F801EC0FFD1F808152
:100220008823A1F0F801EC0FFD1F9F012C543F4FD4
:10023000AF0148585F4FD9012C91DA014C9164AD60
:100240000E94AD00CC24C394D12C06C020E040E035
:1002500060E08FEF0E94AD002196CE15DF05E4F23D
:10026000CD2811F00E94A000DF91CF911F910F9136
:10027000FF90EF90DF90CF9008950E943A09907818
:1002800099231CF401979F6F019608952F923F9236
:100290004F925F926F927F928F929F92AF92BF9296
:1002A000CF92DF92EF92FF920F931F93CF93DF9342
:1002B00000D000D01F92CDB7DEB72C015B014A0100
:1002C00069011B830A830E943D0189830E943D01CD
:1002D000F82E0E943D01182F14012A183B08612CAA
:1002E000712C39C06C817D81660D771D6A0D7B1D77
:1002F000861697063CF0E12E0F2D29814FEFC201A3
:100300000E94E2008C819D8101969D838C8302C0B6
:100310001D821C828C819D818C159D051CF36A8138
:100320007B81C2010E94FB0080E49CE90197F1F708
:10033000B3016A0D7B1DC4018C199D0986179707AF
:100340003CF0E12C00E020E04FEFC2010E94E2000F
:100350009FEF691A790A62147304D4F2612C712C2C
:100360003CC06C817D81660D771D680D791D6A1515
:100370007B053CF0E12E0F2D29814FEFC2010E9439
:10038000E2008C819D8101979D838C8302C01D8238
:100390001C828C819D819195819591098C159D057B
:1003A00004F36A817B81C2010E94FB0080E49CE926
:1003B0000197F1F7B301680D791DC5018C0D9D1DE5
:1003C000681779073CF0E12C00E020E04FEFC20114
:1003D0000E94E20091E0691A71088827992786191E
:1003E0009709821593059CF20F900F900F900F9034
:1003F0000F90DF91CF911F910F91FF90EF90DF90C1
:10040000CF90BF90AF909F908F907F906F905F90B4
:100410004F903F902F9008958F929F92AF92BF92EE
:10042000CF92DF92EF92FF920F931F93CF93DF93C0
:100430006C017B015A0100E010E016C00E943D01F2
:10044000E601C00FD11F88830E943D018CAF0E943E
:100450003D01FE01E858FF4F80830E943D01CC54CE
:10046000DF4F88830F5F1F4F0E151F053CF3B70149
:10047000C6010E94FB00B501BB0C880B990B0E94C2
:10048000CC074B015C0120E030E04AE755E40E94D4
:1004900059086B017C0120E030E040E85FE30E94F6
:1004A0009607882324F120E03FEF4FE757E4C70188
:1004B000B6010E9454081816ACF420E030E040E287
:1004C00051E4C501B4010E9459080E949B0706C06F
:1004D00080E991E00197F1F76150710961157105AB
:1004E000B9F70AC0C701B6010E949B0702C061E0CC
:1004F00070E0CB010197F1F7DF91CF911F910F9140
:10050000FF90EF90DF90CF90BF90AF909F908F9033
:1005100008952F923F924F925F926F927F928F92A7
:100520009F92AF92BF92CF92DF92EF92FF920F9382
:100530001F93CF93DF93CDB7DEB727970FB6F8940D
:10054000DEBF0FBECDBF6C011B015A010E943D01F1
:10055000182F0E943D01F82E0E943D018D830F2E21
:10056000FBE38F2E912CF02D1F821E82ED800F2D2C
:10057000212F4FEF6E817F81C6010E94E200ED8046
:10058000212F4FEFB401C6010E94E2008E819F81AE
:1005900001969F838E8391E0891A9108B101C6016B
:1005A0000E94FB008E819F814D9709F447C0B501E1
:1005B0000B2C000C880B990B0E94CC0769837A8363
:1005C0008B839C8320E030E04AE755E40E94590881
:1005D0002B013C0120E030E040E85FE30E949607F9
:1005E000882334F120E03FEF4FE757E4C301B20125
:1005F0000E9454081816BCF420E030E040E251E4B8
:1006000069817A818B819C810E9459080E949B0795
:1006100006C080E991E00197F1F761507109611519
:100620007105B9F7A3CFC301B2010E949B0702C0B5
:1006300061E070E0CB010197F1F798CF0E943D0196
:10064000182F0E943D01F82E0E943D018D830F2E30
:10065000FEE18F2E912CF02DED800F2D212F4FEFED
:100660006E817F81C6010E94E200ED80212F4FEF55
:10067000B401C6010E94E2008E819F8101979F8391
:100680008E839FEF891A990AB101C6010E94FB006F
:100690008E819F81892B09F447C0B5010B2C000C7A
:1006A000880B990B0E94CC0769837A838B839C8388
:1006B00020E030E04AE755E40E9459082B013C0154
:1006C00020E030E040E85FE30E949607882334F1A1
:1006D00020E03FEF4FE757E4C301B2010E94540806
:1006E0001816BCF420E030E040E251E469817A81E0
:1006F0008B819C810E9459080E949B0706C080E95B
:1007000091E00197F1F76150710961157105B9F731
:10071000A3CFC301B2010E949B0702C061E070E059
:10072000CB010197F1F798CF27960FB6F894DEBF6B
:100730000FBECDBFDF91CF911F910F91FF90EF9032
:10074000DF90CF90BF90AF909F908F907F906F90F1
:100750005F904F903F902F9008958CE284B980E590
:100760008CBD0895E1E8F0E08081886080838FEFA0
:100770009FEF9093890080938800808182608083BE
:1007800008951F920F920FB60F9211242F938F93FB
:100790009F93EF93FF9380910A0190910B01892B16
:1007A000C9F1809184009091850088349D405CF46B
:1007B000E0919601F0919701EE0FFF1FEF5DFC4F66
:1007C000118210820CC0E0919601F0919701EE0F1A
:1007D000FF1FEF5DFC4F81E090E09183808380916B
:1007E00096019091970101969093970180939601BD
:1007F0008091960190919701849741F4109297010E
:100800001092960110920B0110920A01109285002D
:1008100010928400FF91EF919F918F912F910F90F3
:100820000FBE0F901F9018958AB18B7F8AB98DB338
:1008300081608DBBE9E6F0E080818260808308956D
:1008400020E030E080E090E041E250E018C0FA01A2
:10085000EE0FFF1FEF5DFC4F60817181613071050C
:1008600051F461E070E0022E02C0660F771F0A9417
:10087000E2F7862B972B415051092F5F3F4F2031D4
:1008800031052CF30895CF93DF9388E291E00E9425
:100890009409C2E1D0E014C0FE01EE0FFF1FEF5D2E
:1008A000FC4F808191819F938F9388E391E09F9388
:1008B0008F930E947E0921960F900F900F900F90BA
:1008C000C232D1054CF38CE391E00E949409DF9190
:1008D000CF9108950E942004873C28E3920709F4F1
:1008E000D8C0A0F4873E28E1920709F4C8C028F4D4
:1008F0008D3F924009F444C030C18D3D22E2920701
:10090000A1F18F3C904309F4B5C027C185382AE78F
:10091000920709F4B9C020F48D39924651F01DC1F7
:10092000873628E9920709F441C08D33924C99F13A
:1009300014C18AE491E00E949409809198019091F9
:100940009901892B59F06CE370E081E392E00E94F9
:10095000C2001092990110929801089581E090E0F0
:100960009093990180939801089581E090E090938D
:1009700099018093980187E591E00E949409089578
:1009800082E090E0909399018093980189E591E04D
:100990000E949409089583E090E0909399018093D8
:1009A00098018BE591E00E94940908958091980147
:1009B000909199018230910519F183309105E9F107
:1009C000019709F0DCC080910401909105018A3003
:1009D00091052CF401969093050180930401809178
:1009E00005018F93809104018F938DE591E09F9392
:1009F0008F930E947E090F900F900F900F90089593
:100A00008091080190910901863091052CF00297A0
:100A10009093090180930801809109018F9380913F
:100A200008018F938DE591E09F938F930E947E093B
:100A30000F900F900F900F90089580910601909164
:100A40000701853091052CF004979093070180935E
:100A50000601809107018F93809106018F938DE5A8
:100A600091E09F938F930E947E090F900F900F90BB
:100A70000F90089584E691E00E949409089589E614
:100A800091E00E949409089580E791E00E94940902
:100A9000089580919801909199018230910519F102
:100AA00083309105E9F1019709F069C08091040153
:100AB00090910501823091052CF0019790930501EA
:100AC00080930401809105018F93809104018F939D
:100AD00086E791E09F938F930E947E090F900F907D
:100AE0000F900F9008958091080190910901843131
:100AF00091052CF40296909309018093080180914E
:100B000009018F93809108018F9386E791E09F936D
:100B10008F930E947E090F900F900F900F90089571
:100B200080910601909107018C3391052CF4049675
:100B30009093070180930601809107018F93809124
:100B400006018F9386E791E09F938F930E947E0921
:100B50000F900F900F900F9008958FE791E00E94F3
:100B6000940980E090E008C0FC01EE0FFF1FEF5DEC
:100B7000FC4F11821082019685329105ACF30895E5
:100B800080E00E947F070E9414040E94B2030E942A
:100B9000AD037894E1ECF0E080818068808380E8A8
:100BA0008AB98BB96CE370E081E392E00E947E0029
:100BB0006CE370E081E392E00E94C20080910A0140
:100BC00090910B01892B71F40E9443040E946A04E6
:100BD00081E090E090930B0180930A0110929701BD
:100BE000109296018091980190919901823091051F
:100BF000A1F083309105E1F0019701F72091040104
:100C0000309105010CE310E04BE350E060E070E050
:100C100081E392E00E944601D1CF409108015091BA
:100C200009016CE370E081E392E00E948902C6CF83
:100C300040910601509107016CE370E081E392E07E
:100C40000E940C02BBCFCF93C82F873069F420914C
:100C50006F033091700347E050E061E070E08DE891
:100C600091E00E944A092AC08A3019F48DE00E945E
:100C700023068091EC018823D9F08091EF019091B7
:100C8000F001FC01EF50FE4FC08301968F73907806
:100C9000992324F40197806C9F6F01969093F00143
:100CA0008093EF01E1ECF0E080818062808306C0F8
:100CB0008091C00085FFFCCFC093C60080E090E02B
:100CC000CF910895EF92FF920F931F93CF93DF93ED
:100CD0002091EA013091EB01232B09F0A3C08C0194
:100CE000CAE9D1E09091C0009923E4F78091C00057
:100CF00084FDABC08091C00083FDAAC08091C60076
:100D00008D3009F48AE08A3059F48883B8010E9452
:100D100023068AE991E09093EB018093EA0182C077
:100D2000893009F480E290EE980F9F3510F0803AF8
:100D300098F091E0C93ED90729F4B80187E00E94F4
:100D40002306D0CF7E01EFEFEE1AFE0A8883B801AA
:100D50000E942306E701C6CF823119F130F48330B7
:100D600009F479C0883049F0BDCF873109F44EC00D
:100D70008F3719F08531B9F1B5CFF1E0CA39DF0706
:100D800009F008F4AFCFB80188E00E942306B8014B
:100D900080E20E942306B80188E00E942306219782
:100DA000A1CFB8018DE00E9423060F2EFAE9EF2EA5
:100DB000F1E0FF2EF02D06C0B801F70181917F010F
:100DC0000E942306EC16FD06B8F38CCFB80188E02C
:100DD0000E942306B80180E20E942306B80188E041
:100DE0000E9423062197F1E0CA39DF0709F070F766
:100DF00079CFB80188E00E942306B80180E20E9402
:100E00002306B80188E00E942306219781E0CA39B1
:100E1000D80709F008F466CFFE013197808180324F
:100E200041F760CFE091EA01F091EB01CF0101962B
:100E30009093EB018093EA0180818A3021F4109233
:100E4000EB011092EA0190E008C08EEF9FEF05C021
:100E50008FEF9FEF02C08FEF9FEFDF91CF911F9138
:100E60000F91FF90EF9008951F920F920FB60F927F
:100E700011242F933F938F939F93EF93FF93209190
:100E8000ED013091EE018091EF019091F001281772
:100E9000390751F1E091ED01F091EE01EF50FE4F75
:100EA00080818093C6008091ED019091EE010196C2
:100EB0008F739078992324F40197806C9F6F01962B
:100EC0009093EE018093ED012091ED013091EE01C0
:100ED0008091EF019091F0012817390729F4E1EC96
:100EE000F0E080818F7D8083FF91EF919F918F91C2
:100EF0003F912F910F900FBE0F901F90189597E67E
:100F00009093C40098E19093C100EBE6F3E02CE0ED
:100F100031E0338322833183208335832483882304
:100F200021F081E08093EC01789408950E940708F5
:100F300008F481E008950E94330888F09F5798F0E4
:100F4000B92F9927B751B0F0E1F0660F771F881FCE
:100F5000991F1AF0BA95C9F714C0B13091F00E94E8
:100F60004D08B1E008950C944D08672F782F88271D
:100F7000B85F39F0B93FCCF3869577956795B3950F
:100F8000D9F73EF490958095709561957F4F8F4F7E
:100F90009F4F0895E89409C097FB3EF49095809583
:100FA000709561957F4F8F4F9F4F9923A9F0F92F2F
:100FB00096E9BB279395F695879577956795B795AD
:100FC000F111F8CFFAF4BB0F11F460FF1BC06F5F93
:100FD0007F4F8F4F9F4F16C0882311F096E911C0A5
:100FE000772321F09EE8872F762F05C0662371F0C6
:100FF00096E8862F70E060E02AF09A95660F771FDA
:10100000881FDAF7880F9695879597F90895990FB5
:101010000008550FAA0BE0E8FEEF16161706E807C2
:10102000F907C0F012161306E407F50798F0621BE3
:10103000730B840B950B39F40A2661F0232B242BB8
:10104000252B21F408950A2609F4A140A6958FEFD7
:10105000811D811D089557FD9058440F551F59F06B
:101060005F3F71F04795880F97FB991F61F09F3F95
:1010700079F087950895121613061406551FF2CFBE
:101080004695F1DF08C0161617061806991FF1CF0E
:1010900086957105610508940895E894BB27662735
:1010A0007727CB0197F908950E94070808F48FEF7E
:1010B00008950E946C080C94DD080E94CF0838F057
:1010C0000E94D60820F0952311F00C94C6080C94C9
:1010D000CC0811240C944E080E942B0870F3959FA5
:1010E000C1F3950F50E0551F629FF001729FBB271F
:1010F000F00DB11D639FAA27F00DB11DAA1F649FBB
:101100006627B00DA11D661F829F2227B00DA11D6D
:10111000621F739FB00DA11D621F839FA00D611DF3
:10112000221F749F3327A00D611D231F849F600D14
:10113000211D822F762F6A2F11249F5750409AF03D
:10114000F1F088234AF0EE0FFF1FBB1F661F771FC9
:10115000881F91505040A9F79E3F510580F00C9494
:10116000C6080C944E085F3FE4F3983ED4F386958E
:1011700077956795B795F795E7959F5FC1F7FE2B34
:10118000880F911D9695879597F9089597F99F6710
:1011900080E870E060E008959FEF80EC08950024FF
:1011A0000A941616170618060906089500240A94CC
:1011B00012161306140605060895092E0394000C52
:1011C00011F4882352F0BB0F40F4BF2B11F460FFE1
:1011D00004C06F5F7F4F8F4F9F4F08958F929F92F4
:1011E000AF92BF92CF92DF92EF92FF92CF93DF93B5
:1011F000EC01688179818A819B8161157105810586
:10120000910521F464E279ED8BE597E02DE133EF70
:1012100041E050E00E94550C49015A019B01AC018C
:10122000A7EAB1E40E94740C6B017C01ACEEB4EF50
:10123000A50194010E94820CDC01CB018C0D9D1D47
:10124000AE1DBF1DB7FF03C00197A109B048888339
:101250009983AA83BB839F77DF91CF91FF90EF9013
:10126000DF90CF90BF90AF909F908F9008950E9495
:10127000EE08089580E091E00E94EE080895A0E055
:10128000B0E08093000190930101A0930201B0931C
:1012900003010895A0E0B0E0E0E5F9E00C948D0CC6
:1012A0005B014A017901D90113962C9121FF1DC0E0
:1012B000C0E0D0E0C815D905D9F08C016C01CA0C8A
:1012C000DB1CC8010C151D0571F00F5F1F4FD70106
:1012D0001896ED91FC911997B701DC018C91099555
:1012E000892B79F305C02196E5CF80E090E001C01D
:1012F000CE01CDB7DEB7ECE00C94A90CA0E0B0E0D5
:10130000E4E8F9E00C94970CAE014B5F5F4FFA01F3
:1013100061917191AF0180916D0390916E030E9474
:10132000C409E2E00C94B30C0F931F93CF93DF93A7
:10133000E0916D03F0916E03238121FF1BC08C01AE
:10134000D0E0C0E0F80181918F0160916D03709150
:101350006E03DB011896ED91FC911997882331F00B
:101360000995892B79F3DFEFCFEFECCF8AE0099570
:10137000892B19F08FEF9FEF02C08D2F9C2FDF91EB
:10138000CF911F910F910895ABE0B0E0EAECF9E046
:101390000C94870C6C017B018A01FC011782168278
:1013A000838181FFCCC1CE0101963C01F60193817E
:1013B000F70193FD859193FF81917F01882309F4C3
:1013C000BAC1853239F493FD859193FF81917F01F4
:1013D000853229F4B60190E00E94BB0BE7CF912C37
:1013E000212C312CFFE1F315D8F08B3279F038F451
:1013F000803279F08332A1F4232D20611DC08D321B
:1014000061F0803369F4232D216016C0832D826042
:10141000382EE32DE4603E2E2AC0F32DF8601DC067
:1014200037FC2DC020ED280F2A3040F08E32B9F461
:1014300036FC81C1232D2064322E19C036FE06C031
:101440008AE0989E200D1124922E11C0EAE02E9E73
:10145000200D1124222EF32DF0623F2E08C08C3671
:1014600021F4832D8068382E02C0883641F4F701BC
:1014700093FD859193FF81917F018111B3CF982FC7
:101480009F7D9554933028F40C5F1F4F9FE3998301
:101490000DC0833631F0833771F0833509F059C0C0
:1014A00021C0F801808189830E5F1F4F88248394B7
:1014B000912C530113C02801F2E04F0E511CF8018A
:1014C000A080B18036FE03C0692D70E002C06FEFCE
:1014D0007FEFC5010E94B00B4C018201F32DFF7715
:1014E0003F2E16C0280122E0420E511CF801A080B8
:1014F000B18036FE03C0692D70E002C06FEF7FEF50
:10150000C5010E94A50B4C01F32DF0683F2E82010E
:1015100033FC1BC0822D90E088169906B0F4B6010A
:1015200080E290E00E94BB0B2A94F4CFF50137FCD7
:10153000859137FE81915F01B60190E00E94BB0B5F
:1015400021102A9421E0821A91088114910471F7E4
:10155000E8C0843611F0893641F5F80137FE07C03E
:1015600060817181828193810C5F1F4F08C060810F
:101570007181072E000C880B990B0E5F1F4FF32D06
:10158000FF763F2E97FF09C09095809570956195E5
:101590007F4F8F4F9F4FF0683F2E2AE030E0A3012E
:1015A0000E94F70B882E861845C0853731F4232D0D
:1015B0002F7EB22E2AE030E025C0932D997FB92EE0
:1015C0008F36C1F018F4883579F0B5C0803719F03E
:1015D000883721F0B0C0E92FE061BE2EB4FE0DC007
:1015E000FB2DF460BF2E09C034FE0AC0292F2660EF
:1015F000B22E06C028E030E005C020E130E002C095
:1016000020E132E0F801B7FE07C06081718182817C
:1016100093810C5F1F4F06C06081718180E090E074
:101620000E5F1F4FA3010E94F70B882E8618FB2D1B
:10163000FF773F2E36FE0DC0232D2E7FA22E89145C
:1016400058F434FE0BC032FC09C0832D8E7EA82EC8
:1016500005C0B82CA32C03C0B82C01C0B92CA4FE23
:101660000FC0FE01E80DF11D8081803321F49A2D19
:10167000997EA92E09C0A2FE06C0B394B39404C0FB
:101680008A2D867809F0B394A3FC11C0A0FE06C091
:10169000B21488F4280C922C9B180EC0B21460F47B
:1016A000B60180E290E00E94BB0BB394F7CFB21476
:1016B00018F42B1802C0982C212CA4FE10C0B601DF
:1016C00080E390E00E94BB0BA2FE17C0A1FC03C008
:1016D00088E790E002C088E590E0B6010CC08A2D52
:1016E000867859F0A1FE02C08BE201C080E2A7FC1F
:1016F0008DE2B60190E00E94BB0B891438F4B6016C
:1017000080E390E00E94BB0B9A94F7CF8A94F30198
:10171000E80DF11D8081B60190E00E94BB0B8110A5
:10172000F5CF222009F442CEB60180E290E00E947B
:10173000BB0B2A94F6CFF6018681978102C08FEF0A
:101740009FEF2B96E2E10C94A30CFC0105906150F5
:1017500070400110D8F7809590958E0F9F1F0895C7
:10176000FC016150704001900110D8F78095909570
:101770008E0F9F1F08950F931F93CF93DF93FB014D
:10178000238121FD03C08FEF9FEF2CC022FF16C0E5
:1017900046815781248135814217530744F4A08143
:1017A000B1819D012F5F3F4F318320838C93268130
:1017B00037812F5F3F4F3783268314C08B01EC01A5
:1017C000FB010084F185E02D0995892BE1F6D80114
:1017D00016968D919C911797019617969C938E93D0
:1017E0001697CE01DF91CF911F910F910895FA01C5
:1017F000AA27283051F1203181F1E8946F936E7F50
:101800006E5F7F4F8F4F9F4FAF4FB1E03ED0B4E040
:101810003CD0670F781F891F9A1FA11D680F791F81
:101820008A1F911DA11D6A0F711D811D911DA11D92
:1018300020D009F468943F912AE0269F11243019A2
:10184000305D3193DEF6CF010895462F4770405D3D
:101850004193B3E00FD0C9F7F6CF462F4F70405DEC
:101860004A3318F0495D31FD4052419302D0A9F747
:10187000EACFB4E0A6959795879577956795BA9541
:10188000C9F700976105710508959B01AC010A2E07
:1018900006945795479537952795BA95C9F7620FDE
:1018A000731F841F951FA01D0895052E97FB1EF41E
:1018B00000940E946C0C57FD07D00E94BE0C07FCE0
:1018C00003D04EF40C946C0C5095409530952195B6
:1018D0003F4F4F4F5F4F089590958095709561955C
:1018E0007F4F8F4F9F4F08950E94E00CA59F900D52
:1018F000B49F900DA49F800D911D11240895B7FFF2
:101900000C94740C0E94740C821B930B08952F92FC
:101910003F924F925F926F927F928F929F92AF927F
:10192000BF92CF92DF92EF92FF920F931F93CF93CC
:10193000DF93CDB7DEB7CA1BDB0B0FB6F894DEBF63
:101940000FBECDBF09942A88398848885F846E8489
:101950007D848C849B84AA84B984C884DF80EE80D3
:10196000FD800C811B81AA81B981CE0FD11D0FB6DC
:10197000F894DEBF0FBECDBFED010895A1E21A2E8F
:10198000AA1BBB1BFD010DC0AA1FBB1FEE1FFF1F23
:10199000A217B307E407F50720F0A21BB30BE40B73
:1019A000F50B661F771F881F991F1A9469F76095BA
:1019B0007095809590959B01AC01BD01CF01089574
:1019C000A29FB001B39FC001A39F700D811D112480
:1019D000911DB29F700D811D1124911D0895F894E1
:0219E000FFCF37
:1019E2000100000004000A000A00010000000003D8
:1019F20000000000230662060000496E76616C69F1
:101A02006420496E646578000A2053746172742000
:101A12005369676E616C2000256420000A20454EE0
:101A220044205369676E616C2000504F5745522025
:101A32004F4E2F4F46460041004200430055502072
:101A420025640A004C45465400434952434C450024
:101A5200524947485400444F574E2025640A0045D6
:101A620052524F52204F434355524544002A726905
:061A72006E672A0A000065
:00000001FF
