:100000000C945A000C9433050C9477000C947700F0
:100010000C9477000C9477000C9477000C94770084
:100020000C9477000C9477000C9477000C94770074
:100030000C9477000C9477000C9477000C94770064
:100040000C9477000C9477000C9477000C94A6081D
:100050000C9477000C9477000C9477000C94770044
:100060000C9477000C9477000C9477000C94770034
:100070000C9477000C9477000C9477000C94770024
:100080000C9477000C9477000C9477000C94770014
:100090000C9477000C9477000C9477000C94770004
:1000A0000C9477000C9477000C9477000C947700F4
:1000B0000C94770011241FBECFEFD8E0DEBFCDBF78
:1000C00011E0A0E0B1E0E8EBFDE102C005900D9287
:1000D000A639B107D9F723E0A6E9B1E001C01D9226
:1000E000A137B207E1F70E9432070C94DA0E0C94A4
:1000F00000008EBD0DB407FEFDCF089520E030E076
:100100000EC0FC01E20FF31F108214AEDF01A858ED
:10011000BF4F1C92EC54FF4F10822F5F3F4F2617AA
:1001200037077CF3089580E00E94790080E00E9408
:10013000790080E00E94790080E00E9479000895B3
:100140008FEF0E9479008FEF0E9479008FEF0E945D
:1001500079008FEF0E94790008951F93CF93DF936A
:10016000C62FD42F122F0E947900812F0E94790070
:100170008D2F0E9479008C2F0E947900DF91CF9102
:100180001F9108950F931F93CF93DF93EC018B0181
:100190000E949300B801CE010E947E00C0E0D0E032
:1001A00007C020E040E060E08FEF0E94AD002196A4
:1001B000C017D107B4F30E94A000DF91CF911F9127
:1001C0000F910895EF920F936C33710568F4FC0161
:1001D000E60FF71F408324AFDF01A858BF4F0C93F1
:1001E000EC54FF4FE08204C08AE191E00E947F0B53
:1001F0000F91EF900895CF92DF92EF92FF920F93BD
:100200001F93CF93DF938C017B010E949300C0E08A
:10021000D0E0C12CD12C21C0F801EC0FFD1F808152
:100220008823A1F0F801EC0FFD1F9F012C543F4FD4
:10023000AF0148585F4FD9012C91DA014C9164AD60
:100240000E94AD00CC24C394D12C06C020E040E035
:1002500060E08FEF0E94AD002196CE15DF05E4F23D
:10026000CD2811F00E94A000DF91CF911F910F9136
:10027000FF90EF90DF90CF9008950E94250B90782B
:1002800099231CF401979F6F019608952F923F9236
:100290004F925F926F927F928F929F92AF92BF9296
:1002A000CF92DF92EF92FF920F931F93CF93DF9342
:1002B000CDB7DEB764970FB6F894DEBF0FBECDBFE3
:1002C0009A8789872B011A0159011C870B870E9485
:1002D0003D018E870E943D018F870E943D01182FAE
:1002E000910124193509398B288B6AE070E06A196D
:1002F0007B09072E000C880B990B0E94B70920E0A0
:1003000030E046E953E40E946C0A0E947F093B01F9
:1003100036E4630E711C812C912C1D871981E0C07D
:100320006B897C89680D791D640D751D261637064D
:1003300044F0ED840F852E854FEF89859A850E94C4
:10034000E2006B857C8589859A850E94FB00B3015C
:10035000072C000C880B990B0E94B7096B017C01DC
:100360002BEA3AEA4AEA50E40E946C0A69837A83EB
:100370008B839C8320E030E040E850E4C701B60165
:100380000E946C0A6D837E838F83988720E030E023
:1003900040E85FE369817A818B819C810E94080932
:1003A00088230CF473C020E03FEF4FE757E46D81E2
:1003B0007E818F8198850E94670A18160CF048C0CC
:1003C00020E030E04AE754E4C701B6010E940D097D
:1003D00069837A838B839C8320E030E04AE755E48D
:1003E0000E946C0A6B017C0120E030E040E85FE392
:1003F0000E940809882334F120E03FEF4FE757E4DB
:10040000C701B6010E94670A1816BCF420E030E06C
:1004100040E251E469817A818B819C810E946C0A5F
:100420000E94860906C080E991E00197F1F76150CA
:10043000710961157105B9F72AC0C701B6010E949B
:10044000860902C061E070E0CB010197F1F71FC09F
:1004500020E030E04FE753E469817A818B819C8111
:100460000E94670A181654F46D817E818F819885E9
:100470000E948609CB010197F1F70CC069817A814E
:100480008B819C810E948609162F01C011E0812F6B
:100490008A95F1F78B899C8901969C8B8B8B06C082
:1004A0001A82198220E030E03C8B2B8B8B899C894F
:1004B0008A159B050CF434CFB401640D751DC10180
:1004C0008A199B098617970744F0E12C00E020E089
:1004D0004FEF89859A850E94E2009FEF891A990A59
:1004E0002889398982169306DCF2812C912C1A898D
:1004F000E3C06B897C89680D791D620D731D6415DD
:10050000750544F0ED840F852E854FEF89859A851A
:100510000E94E2006B857C8589859A850E94FB009C
:10052000B301072C000C880B990B0E94B7096B01D3
:100530007C012BEA3AEA4AEA50E40E946C0A698399
:100540007A838B839C8320E030E040E850E4C7014D
:10055000B6010E946C0A6D837E838F83988720E0AA
:1005600030E040E85FE369817A818B819C810E9461
:10057000080988230CF473C020E03FEF4FE757E4ED
:100580006D817E818F8198850E94670A18160CF014
:1005900048C020E030E04AE754E4C701B6010E94B9
:1005A0000D0969837A838B839C8320E030E04AE7DE
:1005B00055E40E946C0A6B017C0120E030E040E8C9
:1005C0005FE30E940809882334F120E03FEF4FE702
:1005D00057E4C701B6010E94670A1816BCF420E070
:1005E00030E040E251E469817A818B819C810E94F4
:1005F0006C0A0E94860906C080E991E00197F1F734
:100600006150710961157105B9F72AC0C701B601BA
:100610000E94860902C061E070E0CB010197F1F70A
:100620001FC020E030E04FE753E469817A818B817D
:100630009C810E94670A181654F46D817E818F8117
:1006400098850E948609CB010197F1F70CC069815A
:100650007A818B819C810E948609162F01C011E04E
:10066000812F8A95F1F78B899C8901979C8B8B8BC5
:1006700006C01A82198220E030E03C8B2B8B8B89DC
:100680009C899195819591098A159B050CF431CF30
:10069000B401620D731DC2018A0D9B1D6817790795
:1006A00044F0E12C00E020E04FEF89859A850E941C
:1006B000E20031E0831A910888279927881999095F
:1006C0002889398982179307A4F264960FB6F894A3
:1006D000DEBF0FBECDBFDF91CF911F910F91FF9075
:1006E000EF90DF90CF90BF90AF909F908F907F90D2
:1006F0006F905F904F903F902F9008958F929F92B0
:10070000AF92BF92CF92DF92EF92FF920F931F931F
:10071000CF93DF936C017B015A0100E010E016C01B
:100720000E943D01E601C00FD11F88830E943D0158
:100730008CAF0E943D01FE01E858FF4F80830E946C
:100740003D01CC54DF4F88830F5F1F4F0E151F05EF
:100750003CF3B701C6010E94FB00B501BB0C880B3E
:10076000990B0E94B7094B015C0120E030E04AE799
:1007700055E40E946C0A6B017C0120E030E040E807
:100780005FE30E940809882324F120E03FEF4FE750
:1007900057E4C701B6010E94670A1816ACF420E0BE
:1007A00030E040E251E4C501B4010E946C0A0E94AD
:1007B000860906C080E991E00197F1F7615071095F
:1007C00061157105B9F70AC0C701B6010E94860913
:1007D00002C061E070E0CB010197F1F7DF91CF91AA
:1007E0001F910F91FF90EF90DF90CF90BF90AF904F
:1007F0009F908F9008952F923F924F925F926F92A9
:100800007F928F929F92AF92BF92CF92DF92EF92A0
:10081000FF920F931F93CF93DF93CDB7DEB7279748
:100820000FB6F894DEBF0FBECDBF6C011B015A019D
:100830000E943D01182F0E943D01F82E0E943D01AB
:100840008D830F2EFBE38F2E912CF02D1F821E82A5
:10085000ED800F2D212F4FEF6E817F81C6010E9409
:10086000E200ED80212F4FEFB401C6010E94E200AB
:100870008E819F8101969F838E8391E0891A9108D2
:10088000B101C6010E94FB008E819F814D9709F442
:1008900047C0B5010B2C000C880B990B0E94B709BF
:1008A00069837A838B839C8320E030E04AE755E4B8
:1008B0000E946C0A2B013C0120E030E040E85FE33D
:1008C0000E940809882334F120E03FEF4FE757E406
:1008D000C301B2010E94670A1816BCF420E030E0A0
:1008E00040E251E469817A818B819C810E946C0A8B
:1008F0000E94860906C080E991E00197F1F76150F6
:10090000710961157105B9F7A3CFC301B2010E9446
:10091000860902C061E070E0CB010197F1F798CF42
:100920000E943D01182F0E943D01F82E0E943D01BA
:100930008D830F2EFEE18F2E912CF02DED800F2D4B
:10094000212F4FEF6E817F81C6010E94E200ED8072
:10095000212F4FEFB401C6010E94E2008E819F81DA
:1009600001979F838E839FEF891A990AB101C6016F
:100970000E94FB008E819F81892B09F447C0B5013D
:100980000B2C000C880B990B0E94B70969837A83A2
:100990008B839C8320E030E04AE755E40E946C0A98
:1009A0002B013C0120E030E040E85FE30E940809B1
:1009B000882334F120E03FEF4FE757E4C301B20151
:1009C0000E94670A1816BCF420E030E040E251E4CF
:1009D00069817A818B819C810E946C0A0E948609C0
:1009E00006C080E991E00197F1F761507109611546
:1009F0007105B9F7A3CFC301B2010E94860902C0F5
:100A000061E070E0CB010197F1F798CF27960FB620
:100A1000F894DEBF0FBECDBFDF91CF911F910F9134
:100A2000FF90EF90DF90CF90BF90AF909F908F900E
:100A30007F906F905F904F903F902F9008958CE241
:100A400084B980E58CBD0895E1E8F0E0808188609C
:100A500080838FEF9FEF909389008093880080813F
:100A60008260808308951F920F920FB60F92112417
:100A70002F938F939F93EF93FF9380910A0190910F
:100A80000B01892BC9F180918400909185008834F5
:100A90009D405CF4E0919601F0919701EE0FFF1FED
:100AA000EF5DFC4F118210820CC0E0919601F09135
:100AB0009701EE0FFF1FEF5DFC4F81E090E0918307
:100AC0008083809196019091970101969093970170
:100AD000809396018091960190919701849741F4BB
:100AE000109297011092960110920B0110920A0138
:100AF0001092850010928400FF91EF919F918F9149
:100B00002F910F900FBE0F901F9018958AB18B7F79
:100B10008AB98DB381608DBBE9E6F0E080818260A7
:100B20008083089520E030E080E090E041E250E0F2
:100B300018C0FA01EE0FFF1FEF5DFC4F608171815D
:100B40006130710551F461E070E0022E02C0660F61
:100B5000771F0A94E2F7862B972B415051092F5F9C
:100B60003F4F203131052CF30895CF93DF9388E276
:100B700091E00E947F0BC2E1D0E014C0FE01EE0FB5
:100B8000FF1FEF5DFC4F808191819F938F9388E3DE
:100B900091E09F938F930E94690B21960F900F9085
:100BA0000F900F90C232D1054CF38CE391E00E947C
:100BB0007F0BDF91CF9108950E949205873C28E337
:100BC000920709F4D8C0A0F4873E28E1920709F4FF
:100BD000C8C028F48D3F924009F444C030C18D3D17
:100BE00022E29207A1F18F3C904309F4B5C027C1DE
:100BF00085382AE7920709F4B9C020F48D39924666
:100C000051F01DC1873628E9920709F441C08D33A0
:100C1000924C99F114C18AE491E00E947F0B80917B
:100C2000980190919901892B59F06CE370E081E370
:100C300092E00E94C20010929901109298010895CA
:100C400081E090E09093990180939801089581E06C
:100C500090E0909399018093980187E591E00E943C
:100C60007F0B089582E090E0909399018093980122
:100C700089E591E00E947F0B089583E090E09093D6
:100C80009901809398018BE591E00E947F0B089574
:100C900080919801909199018230910519F18330EA
:100CA0009105E9F1019709F0DCC080910401909170
:100CB00005018A3091052CF40196909305018093EB
:100CC0000401809105018F93809104018F938DE53C
:100CD00091E09F938F930E94690B0F900F900F905C
:100CE0000F90089580910801909109018630910537
:100CF0002CF00297909309018093080180910901DB
:100D00008F93809108018F938DE591E09F938F934E
:100D10000E94690B0F900F900F900F900895809193
:100D2000060190910701853091052CF0049790936E
:100D3000070180930601809107018F93809106013E
:100D40008F938DE591E09F938F930E94690B0F9095
:100D50000F900F900F90089584E691E00E947F0B12
:100D6000089589E691E00E947F0B089580E791E065
:100D70000E947F0B08958091980190919901823093
:100D8000910519F183309105E9F1019709F069C0E6
:100D90008091040190910501823091052CF001971A
:100DA0009093050180930401809105018F938091B8
:100DB00004018F9386E791E09F938F930E94690BC4
:100DC0000F900F900F900F900895809108019091CF
:100DD0000901843191052CF40296909309018093C6
:100DE0000801809109018F93809108018F9386E714
:100DF00091E09F938F930E94690B0F900F900F903B
:100E00000F90089580910601909107018C33910510
:100E10002CF40496909307018093060180910701BA
:100E20008F93809106018F9386E791E09F938F9334
:100E30000E94690B0F900F900F900F9008958FE70D
:100E400091E00E947F0B80E090E008C0FC01EE0F73
:100E5000FF1FEF5DFC4F11821082019685329105D4
:100E6000ACF3089580E00E94F1080E9486050E947C
:100E700024050E941F057894E1ECF0E080818068F1
:100E8000808380E88AB98BB96CE370E081E392E0FB
:100E90000E947E006CE370E081E392E00E94C20059
:100EA00080910A0190910B01892B71F40E94B50584
:100EB0000E94DC0581E090E090930B0180930A0191
:100EC000109297011092960180919801909199014A
:100ED00082309105A1F083309105E1F0019701F78F
:100EE00020910401309105010CE310E04BE350E048
:100EF00060E070E081E392E00E944601D1CF409132
:100F00000801509109016CE370E081E392E00E94D6
:100F1000FB03C6CF40910601509107016CE370E0DE
:100F200081E392E00E947E03BBCFCF93C82F87302E
:100F300069F420916F033091700347E050E061E065
:100F400070E08DE891E00E94350B2AC08A3019F4D8
:100F50008DE00E9495078091EC018823D9F0809163
:100F6000EF019091F001FC01EF50FE4FC08301961C
:100F70008F739078992324F40197806C9F6F01966A
:100F80009093F0018093EF01E1ECF0E080818062CA
:100F9000808306C08091C00085FFFCCFC093C6004F
:100FA00080E090E0CF910895EF92FF920F931F930E
:100FB000CF93DF932091EA013091EB01232B09F0CD
:100FC000A3C08C01CAE9D1E09091C0009923E4F755
:100FD0008091C00084FDABC08091C00083FDAAC099
:100FE0008091C6008D3009F48AE08A3059F48883F4
:100FF000B8010E9495078AE991E09093EB018093F4
:10100000EA0182C0893009F480E290EE980F9F35A2
:1010100010F0803A98F091E0C93ED90729F4B80160
:1010200087E00E949507D0CF7E01EFEFEE1AFE0A0F
:101030008883B8010E949507E701C6CF823119F174
:1010400030F4833009F479C0883049F0BDCF87315E
:1010500009F44EC08F3719F08531B9F1B5CFF1E001
:10106000CA39DF0709F008F4AFCFB80188E00E9461
:101070009507B80180E20E949507B80188E00E94B8
:1010800095072197A1CFB8018DE00E9495070F2EFB
:10109000FAE9EF2EF1E0FF2EF02D06C0B801F701BE
:1010A00081917F010E949507EC16FD06B8F38CCF65
:1010B000B80188E00E949507B80180E20E94950778
:1010C000B80188E00E9495072197F1E0CA39DF074F
:1010D00009F070F779CFB80188E00E949507B80150
:1010E00080E20E949507B80188E00E949507219749
:1010F00081E0CA39D80709F008F466CFFE013197BC
:101100008081803241F760CFE091EA01F091EB01FC
:10111000CF0101969093EB018093EA0180818A30A0
:1011200021F41092EB011092EA0190E008C08EEFDA
:101130009FEF05C08FEF9FEF02C08FEF9FEFDF9112
:10114000CF911F910F91FF90EF9008951F920F92F2
:101150000FB60F9211242F933F938F939F93EF938A
:10116000FF932091ED013091EE018091EF0190917C
:10117000F0012817390751F1E091ED01F091EE01EE
:10118000EF50FE4F80818093C6008091ED019091D9
:10119000EE0101968F739078992324F40197806C67
:1011A0009F6F01969093EE018093ED012091ED01E8
:1011B0003091EE018091EF019091F00128173907ED
:1011C00029F4E1ECF0E080818F7D8083FF91EF9145
:1011D0009F918F913F912F910F900FBE0F901F9075
:1011E000189597E69093C40098E19093C100EBE6C0
:1011F000F3E02CE031E03383228331832083358395
:101200002483882321F081E08093EC017894089571
:101210000E94F20908F481E008950E9421090C94CB
:101220002D0A0E94260A58F00E941F0A40F029F455
:101230005F3F29F00C94160A51110C94610A0C942A
:101240001C0A0E943E0A68F39923B1F3552391F3D7
:10125000951B550BBB27AA2762177307840738F025
:101260009F5F5F4F220F331F441FAA1FA9F335D082
:101270000E2E3AF0E0E832D091505040E695001C36
:10128000CAF72BD0FE2F29D0660F771F881FBB1FF0
:10129000261737074807AB07B0E809F0BB0B802DCE
:1012A000BF01FF2793585F4F3AF09E3F510578F0FA
:1012B0000C94160A0C94610A5F3FE4F3983ED4F351
:1012C000869577956795B795F7959F5FC9F7880FCE
:1012D000911D9695879597F90895E1E0660F771F20
:1012E000881FBB1F621773078407BA0720F0621BB1
:1012F000730B840BBA0BEE1F88F7E09508950E94DC
:1013000086096894B1110C94610A08950E94460AF6
:1013100088F09F5798F0B92F9927B751B0F0E1F0B6
:10132000660F771F881F991F1AF0BA95C9F714C066
:10133000B13091F00E94600AB1E008950C94600A07
:10134000672F782F8827B85F39F0B93FCCF386959F
:1013500077956795B395D9F73EF4909580957095FC
:1013600061957F4F8F4F9F4F0895E89409C097FB79
:101370003EF490958095709561957F4F8F4F9F4F6C
:101380009923A9F0F92F96E9BB279395F6958795B0
:1013900077956795B795F111F8CFFAF4BB0F11F473
:1013A00060FF1BC06F5F7F4F8F4F9F4F16C088231A
:1013B00011F096E911C0772321F09EE8872F762F50
:1013C00005C0662371F096E8862F70E060E02AF091
:1013D0009A95660F771F881FDAF7880F969587957D
:1013E00097F90895990F0008550FAA0BE0E8FEEF52
:1013F00016161706E807F907C0F012161306E407D9
:10140000F50798F0621B730B840B950B39F40A26D1
:1014100061F0232B242B252B21F408950A2609F4AF
:10142000A140A6958FEF811D811D089597F99F67B3
:1014300080E870E060E008959FEF80EC089500245C
:101440000A941616170618060906089500240A9429
:1014500012161306140605060895092E0394000CAF
:1014600011F4882352F0BB0F40F4BF2B11F460FF3E
:1014700004C06F5F7F4F8F4F9F4F089557FD905867
:10148000440F551F59F05F3F71F04795880F97FB48
:10149000991F61F09F3F79F0879508951216130602
:1014A0001406551FF2CF4695F1DF08C01616170631
:1014B0001806991FF1CF8695710561050894089566
:1014C000E894BB2766277727CB0197F908950E94F8
:1014D000F20908F48FEF08950E947F0A0C942D0AF8
:1014E0000E941F0A38F00E94260A20F0952311F06E
:1014F0000C94160A0C941C0A11240C94610A0E9484
:101500003E0A70F3959FC1F3950F50E0551F629FFF
:10151000F001729FBB27F00DB11D639FAA27F00D4C
:10152000B11DAA1F649F6627B00DA11D661F829F73
:101530002227B00DA11D621F739FB00DA11D621F58
:10154000839FA00D611D221F749F3327A00D611D75
:10155000231F849F600D211D822F762F6A2F112457
:101560009F5750409AF0F1F088234AF0EE0FFF1F8A
:10157000BB1F661F771F881F91505040A9F79E3FE1
:10158000510580F00C94160A0C94610A5F3FE4F355
:10159000983ED4F3869577956795B795F795E79537
:1015A0009F5FC1F7FE2B880F911D9695879597F940
:1015B00008958F929F92AF92BF92CF92DF92EF9257
:1015C000FF92CF93DF93EC01688179818A819B81BF
:1015D000611571058105910521F464E279ED8BE5D2
:1015E00097E02DE133EF41E050E00E94400E4901C9
:1015F0005A019B01AC01A7EAB1E40E945F0E6B01A6
:101600007C01ACEEB4EFA50194010E946D0EDC01EB
:10161000CB018C0D9D1DAE1DBF1DB7FF03C00197F3
:10162000A109B04888839983AA83BB839F77DF9100
:10163000CF91FF90EF90DF90CF90BF90AF909F90B1
:101640008F9008950E94D90A089580E091E00E9449
:10165000D90A0895A0E0B0E08093000190930101C1
:10166000A0930201B09303010895A0E0B0E0EBE382
:10167000FBE00C94780E5B014A017901D9011396C5
:101680002C9121FF1DC0C0E0D0E0C815D905D9F0CC
:101690008C016C01CA0CDB1CC8010C151D0571F016
:1016A0000F5F1F4FD7011896ED91FC911997B70165
:1016B000DC018C910995892B79F305C02196E5CF42
:1016C00080E090E001C0CE01CDB7DEB7ECE00C9435
:1016D000940EA0E0B0E0EFE6FBE00C94820EAE01C9
:1016E0004B5F5F4FFA0161917191AF0180916D0382
:1016F00090916E030E94AF0BE2E00C949E0E0F934C
:101700001F93CF93DF93E0916D03F0916E032381DC
:1017100021FF1BC08C01D0E0C0E0F80181918F0156
:1017200060916D0370916E03DB011896ED91FC9151
:101730001997882331F00995892B79F3DFEFCFEFE3
:10174000ECCF8AE00995892B19F08FEF9FEF02C04B
:101750008D2F9C2FDF91CF911F910F910895ABE0BA
:10176000B0E0E5EBFBE00C94720E6C017B018A01AA
:10177000FC0117821682838181FFCCC1CE010196C4
:101780003C01F6019381F70193FD859193FF8191CF
:101790007F01882309F4BAC1853239F493FD85911C
:1017A00093FF81917F01853229F4B60190E00E9478
:1017B000A60DE7CF912C212C312CFFE1F315D8F0A9
:1017C0008B3279F038F4803279F08332A1F4232D12
:1017D00020611DC08D3261F0803369F4232D2160BA
:1017E00016C0832D8260382EE32DE4603E2E2AC081
:1017F000F32DF8601DC037FC2DC020ED280F2A30D6
:1018000040F08E32B9F436FC81C1232D2064322E93
:1018100019C036FE06C08AE0989E200D1124922E33
:1018200011C0EAE02E9E200D1124222EF32DF0622D
:101830003F2E08C08C3621F4832D8068382E02C0DC
:10184000883641F4F70193FD859193FF81917F01E3
:101850008111B3CF982F9F7D9554933028F40C5F5E
:101860001F4F9FE399830DC0833631F0833771F0AA
:10187000833509F059C021C0F801808189830E5F4A
:101880001F4F88248394912C530113C02801F2E048
:101890004F0E511CF801A080B18036FE03C0692DA7
:1018A00070E002C06FEF7FEFC5010E949B0D4C01FD
:1018B0008201F32DFF773F2E16C0280122E0420E51
:1018C000511CF801A080B18036FE03C0692D70E084
:1018D00002C06FEF7FEFC5010E94900D4C01F32D08
:1018E000F0683F2E820133FC1BC0822D90E08816E9
:1018F0009906B0F4B60180E290E00E94A60D2A9409
:10190000F4CFF50137FC859137FE81915F01B60177
:1019100090E00E94A60D21102A9421E0821A9108DD
:101920008114910471F7E8C0843611F0893641F5CD
:10193000F80137FE07C060817181828193810C5F5D
:101940001F4F08C060817181072E000C880B990B16
:101950000E5F1F4FF32DFF763F2E97FF09C0909526
:101960008095709561957F4F8F4F9F4FF0683F2E08
:101970002AE030E0A3010E94E20D882E861845C0BF
:10198000853731F4232D2F7EB22E2AE030E025C09A
:10199000932D997FB92E8F36C1F018F4883579F0E0
:1019A000B5C0803719F0883721F0B0C0E92FE06169
:1019B000BE2EB4FE0DC0FB2DF460BF2E09C034FE58
:1019C0000AC0292F2660B22E06C028E030E005C0EC
:1019D00020E130E002C020E132E0F801B7FE07C0AC
:1019E00060817181828193810C5F1F4F06C060818D
:1019F000718180E090E00E5F1F4FA3010E94E20D15
:101A0000882E8618FB2DFF773F2E36FE0DC0232D26
:101A10002E7FA22E891458F434FE0BC032FC09C06C
:101A2000832D8E7EA82E05C0B82CA32C03C0B82C05
:101A300001C0B92CA4FE0FC0FE01E80DF11D80818C
:101A4000803321F49A2D997EA92E09C0A2FE06C0EA
:101A5000B394B39404C08A2D867809F0B394A3FCA0
:101A600011C0A0FE06C0B21488F4280C922C9B185A
:101A70000EC0B21460F4B60180E290E00E94A60DA0
:101A8000B394F7CFB21418F42B1802C0982C212C61
:101A9000A4FE10C0B60180E390E00E94A60DA2FE55
:101AA00017C0A1FC03C088E790E002C088E590E081
:101AB000B6010CC08A2D867859F0A1FE02C08BE2D7
:101AC00001C080E2A7FC8DE2B60190E00E94A60D65
:101AD000891438F4B60180E390E00E94A60D9A9430
:101AE000F7CF8A94F301E80DF11D8081B60190E0F3
:101AF0000E94A60D8110F5CF222009F442CEB60136
:101B000080E290E00E94A60D2A94F6CFF60186812D
:101B1000978102C08FEF9FEF2B96E2E10C948E0E1F
:101B2000FC010590615070400110D8F780959095A8
:101B30008E0F9F1F0895FC016150704001900110AD
:101B4000D8F7809590958E0F9F1F08950F931F9340
:101B5000CF93DF93FB01238121FD03C08FEF9FEF24
:101B60002CC022FF16C0468157812481358142173F
:101B7000530744F4A081B1819D012F5F3F4F318312
:101B800020838C93268137812F5F3F4F37832683B5
:101B900014C08B01EC01FB010084F185E02D099557
:101BA000892BE1F6D80116968D919C911797019695
:101BB00017969C938E931697CE01DF91CF911F912C
:101BC0000F910895FA01AA27283051F1203181F1AF
:101BD000E8946F936E7F6E5F7F4F8F4F9F4FAF4F35
:101BE000B1E03ED0B4E03CD0670F781F891F9A1F48
:101BF000A11D680F791F8A1F911DA11D6A0F711DFC
:101C0000811D911DA11D20D009F468943F912AE007
:101C1000269F11243019305D3193DEF6CF010895EF
:101C2000462F4770405D4193B3E00FD0C9F7F6CF20
:101C3000462F4F70405D4A3318F0495D31FD4052E8
:101C4000419302D0A9F7EACFB4E0A695979587957E
:101C500077956795BA95C9F700976105710508955D
:101C60009B01AC010A2E0694579547953795279509
:101C7000BA95C9F7620F731F841F951FA01D0895A1
:101C8000052E97FB1EF400940E94570E57FD07D0B7
:101C90000E94A90E07FC03D04EF40C94570E5095E9
:101CA0004095309521953F4F4F4F5F4F0895909548
:101CB0008095709561957F4F8F4F9F4F08950E943B
:101CC000CB0EA59F900DB49F900DA49F800D911DEC
:101CD00011240895B7FF0C945F0E0E945F0E821BC3
:101CE000930B08952F923F924F925F926F927F9243
:101CF0008F929F92AF92BF92CF92DF92EF92FF921C
:101D00000F931F93CF93DF93CDB7DEB7CA1BDB0BC7
:101D10000FB6F894DEBF0FBECDBF09942A8839886C
:101D200048885F846E847D848C849B84AA84B98473
:101D3000C884DF80EE80FD800C811B81AA81B9817F
:101D4000CE0FD11D0FB6F894DEBF0FBECDBFED0193
:101D50000895A1E21A2EAA1BBB1BFD010DC0AA1FEC
:101D6000BB1FEE1FFF1FA217B307E407F50720F004
:101D7000A21BB30BE40BF50B661F771F881F991F7F
:101D80001A9469F760957095809590959B01AC01C8
:101D9000BD01CF010895A29FB001B39FC001A39FD1
:101DA000700D811D1124911DB29F700D811D112494
:081DB000911D0895F894FFCF86
:101DB8000100000004000A000A00010000000003FE
:101DC800000000009507D4070000496E76616C6931
:101DD8006420496E646578000A2053746172742027
:101DE8005369676E616C2000256420000A20454E07
:101DF80044205369676E616C2000504F574552204C
:101E08004F4E2F4F46460041004200430055502098
:101E180025640A004C45465400434952434C45004A
:101E2800524947485400444F574E2025640A0045FC
:101E380052524F52204F434355524544002A72692B
:061E48006E672A0A00008B
:00000001FF
