S011000046696E616C50726F6A2E737265638E
S11300000C945A000C9402040C9477000C9477001E
S11300100C9477000C9477000C9477000C94770080
S11300200C9477000C9477000C9477000C94770070
S11300300C9477000C9477000C9477000C94770060
S11300400C9477000C9477000C9477000C94FA07C6
S11300500C9477000C9477000C9477000C94770040
S11300600C9477000C9477000C9477000C94770030
S11300700C9477000C9477000C9477000C94770020
S11300800C9477000C9477000C9477000C94770010
S11300900C9477000C9477000C9477000C94770000
S11300A00C9477000C9477000C9477000C947700F0
S11300B00C94770011241FBECFEFD8E0DEBFCDBF74
S11300C011E0A0E0B1E0EEE6FBE102C005900D9284
S11300D0A03AB107D9F723E0A0EAB1E001C01D922C
S11300E0AF37B207E1F70E9482060C94B50D0C9469
S11300F000008EBD0DB407FEFDCF089520E030E072
S11301000EC0FC01E20FF31F108214AEDF01A858E9
S1130110BF4F1C92EC54FF4F10822F5F3F4F2617A6
S113012037077CF3089580E00E94790080E00E9404
S1130130790080E00E94790080E00E9479000895AF
S11301408FEF0E9479008FEF0E9479008FEF0E9459
S113015079008FEF0E94790008951F93CF93DF9366
S1130160C62FD42F122F0E947900812F0E9479006C
S11301708D2F0E9479008C2F0E947900DF91CF91FE
S11301801F9108950F931F93CF93DF93EC018B017D
S11301900E949300B801CE010E947E00C0E0D0E02E
S11301A007C020E040E060E08FEF0E94AD002196A0
S11301B0C017D107B4F30E94A000DF91CF911F9123
S11301C00F910895EF920F936C33710568F4FC015D
S11301D0E60FF71F408324AFDF01A858BF4F0C93ED
S11301E0EC54FF4FE08204C084E291E00E945A0A7A
S11301F00F91EF900895CF92DF92EF92FF920F93B9
S11302001F93CF93DF938C017B010E949300C0E086
S1130210D0E0C12CD12C21C0F801EC0FFD1F80814E
S11302208823A1F0F801EC0FFD1F9F012C543F4FD0
S1130230AF0148585F4FD9012C91DA014C9164AD5C
S11302400E94AD00CC24C394D12C06C020E040E031
S113025060E08FEF0E94AD002196CE15DF05E4F239
S1130260CD2811F00E94A000DF91CF911F910F9132
S1130270FF90EF90DF90CF9008950E94000A90784D
S113028099231CF401979F6F019608952F923F9232
S11302904F925F926F927F928F929F92AF92BF9292
S11302A0CF92DF92EF92FF920F931F93CF93DF933E
S11302B000D000D01F92CDB7DEB72C015B014A01FC
S11302C069011B830A830E943D0189830E943D01C9
S11302D0F82E0E943D01182F14012A183B08612CA6
S11302E0712C40C08091A2019091A301892B09F047
S11302F08BC01D821C8215C06C817D81660D771DAB
S11303006A0D7B1D861697063CF0E12E0F2D298180
S11303104FEFC2010E94E2008C819D8101969D8372
S11303208C838C819D818C159D0534F36A817B813E
S1130330C2010E94FB0080E49CE90197F1F7B3013C
S11303406A0D7B1DC4018C199D09861797073CF023
S1130350E12C00E020E04FEFC2010E94E2009FEF99
S1130360691A790A621473040CF4BCCF612C712CE1
S113037043C08091A2019091A301892B09F044C04C
S11303801D821C8215C06C817D81660D771D680DF0
S1130390791D6A157B053CF0E12E0F2D29814FEF65
S11303A0C2010E94E2008C819D8101979D838C8310
S11303B08C819D819195819591098C159D051CF3E6
S11303C06A817B81C2010E94FB0080E49CE9019761
S11303D0F1F7B301680D791DC5018C0D9D1D6817DA
S11303E079073CF0E12C00E020E04FEFC2010E94CD
S11303F0E20091E0691A71088827992786199709FC
S1130400821593050CF4B5CF0F900F900F900F90B9
S11304100F90DF91CF911F910F91FF90EF90DF909C
S1130420CF90BF90AF909F908F907F906F905F9090
S11304304F903F902F9008958F929F92AF92BF92CA
S1130440CF92DF92EF92FF920F931F93CF93DF939C
S11304506C017B015A0100E010E016C00E943D01CE
S1130460E601C00FD11F88830E943D018CAF0E941A
S11304703D01FE01E858FF4F80830E943D01CC54AA
S1130480DF4F88830F5F1F4F0E151F053CF3B70125
S1130490C6010E94FB00B501BB0C880B990B0E949E
S11304A092084B015C0120E030E04AE755E40E94E9
S11304B01F096B017C0120E030E040E85FE30E940B
S11304C05C08882324F120E03FEF4FE757E4C7019D
S11304D0B6010E941A091816ACF420E030E040E29C
S11304E051E4C501B4010E941F090E94610806C0BD
S11304F080E991E00197F1F7615071096115710587
S1130500B9F70AC0C701B6010E94610802C061E0E0
S113051070E0CB010197F1F7DF91CF911F910F911B
S1130520FF90EF90DF90CF90BF90AF909F908F900F
S113053008953F924F925F926F927F928F929F9213
S1130540AF92BF92CF92DF92EF92FF920F931F93DD
S1130550CF93DF93CDB7DEB729970FB6F894DEBFFC
S11305600FBECDBF6C017E836D834A010E943D01A5
S1130570182F0E943D01F82E0E943D01382E0F2EA7
S1130580FBE3AF2EB12CF02D198618868091A201C1
S11305909091A301892B09F0E6C0E32C0F2D212FA4
S11305A04FEF68857985C6010E94E200212F4FEF45
S11305B0B501C6010E94E200888599850196998754
S11305C0888791E0A91AB1086D817E81C6010E94D5
S11305D0FB00888599854D9709F447C0B401092C1F
S11305E0000C880B990B0E94920869837A838B8391
S11305F09C8320E030E04AE755E40E941F092B0168
S11306003C0120E030E040E85FE30E945C0888237E
S113061034F120E03FEF4FE757E4C301B2010E94F9
S11306201A091816BCF420E030E040E251E4698174
S11306307A818B819C810E941F090E94610806C0F7
S113064080E991E00197F1F7615071096115710535
S1130650B9F79CCFC301B2010E94610802C061E0F6
S113066070E0CB010197F1F791CF0E943D01182F63
S11306700E943D01F82E0E943D018F830F2EFEE162
S1130680AF2EB12CF02D8091A2019091A301892B62
S113069009F069C0EF800F2D212F4FEF6885798510
S11306A0C6010E94E200EF80212F4FEFB501C60181
S11306B00E94E200888599850197998788879FEF32
S11306C0A91AB90A6D817E81C6010E94FB00888542
S11306D09985892B09F447C0B401092C000C880BB7
S11306E0990B0E94920869837A838B839C8320E010
S11306F030E04AE755E40E941F092B013C0120E049
S113070030E040E85FE30E945C08882334F120E095
S11307103FEF4FE757E4C301B2010E941A091816CC
S1130720BCF420E030E040E251E469817A818B81BD
S11307309C810E941F090E94610806C080E991E023
S11307400197F1F76150710961157105B9F79BCFF4
S1130750C301B2010E94610802C061E070E0CB01F4
S11307600197F1F790CF29960FB6F894DEBF0FBE2C
S1130770CDBFDF91CF911F910F91FF90EF90DF904C
S1130780CF90BF90AF909F908F907F906F905F902D
S11307904F903F9008958CE284B980E58CBD089514
S11307A020E030E080E090E041E250E018C0FA013F
S11307B0EE0FFF1FE15DFC4F6081718161307105B7
S11307C051F461E070E0022E02C0660F771F0A94B4
S11307D0E2F7862B972B415051092F5F3F4F203171
S11307E031052CF30895E1E8F0E08081886080838E
S11307F08FEF9FEF909389008093880080818260BF
S1130800808308951F920F920FB60F9211242F9395
S11308103F934F935F936F937F938F939F93AF9384
S1130820BF93EF93FF9380910A0190910B01892B61
S113083009F47DC0809184009091850088349D40A6
S11308405CF4E091A001F091A101EE0FFF1FE15DC6
S1130850FC4F118210820CC0E091A001F091A10123
S1130860EE0FFF1FE15DFC4F81E090E091838083F8
S11308708091A0019091A10101969093A101809390
S1130880A0018091A0019091A101849709F04BC02F
S11308900E94D00390933E0280933D0210920B017C
S11308A010920A011092A1011092A00120913D0220
S11308B030913E028091A4019091A5012817390737
S11308C091F120913D0230913E028091120190916C
S11308D013012817390709F120913D0230913E0296
S11308E0809110019091110128173907B1F02091DE
S11308F03D0230913E0280910E0190910F01281724
S1130900390759F020913D0230913E0280910C014B
S113091090910D012817390731F481E090E090930C
S1130920A3018093A2011092850010928400FF918C
S1130930EF91BF91AF919F918F917F916F915F9153
S11309404F913F912F910F900FBE0F901F901895CC
S11309508AB18B7F8AB98DB381608DBBE9E6F0E003
S11309608081826080830895CF93DF9382E391E056
S11309700E945A0AC2E1D0E014C0FE01EE0FFF1F2C
S1130980E15DFC4F808191819F938F9382E491E09C
S11309909F938F930E94440A21960F900F900F907B
S11309A00F90C232D1054CF386E491E00E945A0ABA
S11309B0DF91CF910895CF93DF930E94D00390935A
S11309C03E0280933D0220913D0230913E0280918F
S11309D0A4019091A5012817390709F481C18091D8
S11309E03D0290913E02873C28E3920709F4F4C04B
S11309F0A8F4873E28E1920709F4E4C028F48D3F67
S1130A00924009F454C04CC18D3D22E2920709F48E
S1130A103FC08F3C904309F4D0C042C185382AE7D7
S1130A20920709F4D4C020F48D39924659F038C1A4
S1130A30873628E9920709F45CC08D33924C09F497
S1130A4047C02EC184E591E00E945A0A8091A40116
S1130A509091A501892B99F06CE370E08FE392E00B
S1130A600E94C2008091A4019091A5019093150168
S1130A70809314011092A5011092A40131C18091B8
S1130A801401909115019093A5018093A40128C1AC
S1130A90C1E0D0E0D093A501C093A40181E691E028
S1130AA00E945A0AD093A301C093A20119C182E003
S1130AB090E09093A5018093A40183E691E00E94C5
S1130AC05A0A81E090E09093A3018093A20108C1A7
S1130AD083E090E09093A5018093A40185E691E0E2
S1130AE00E945A0A81E090E09093A3018093A201AE
S1130AF0F7C08091A4019091A5018230910519F16C
S1130B0083309105E9F1019709F0EAC0809104016D
S1130B10909105018A3091052CF40196909305017A
S1130B2080930401809105018F93809104018F9338
S1130B3087E691E09F938F930E94440A0F900F9051
S1130B400F900F90CDC080910801909109018630DB
S1130B5091052CF0029790930901809308018091EC
S1130B6009018F93809108018F9387E691E09F9309
S1130B708F930E94440A0F900F900F900F90B0C073
S1130B808091060190910701853091052CF004971E
S1130B909093070180930601809107018F938091C0
S1130BA006018F9387E691E09F938F930E94440AF6
S1130BB00F900F900F900F9093C08EE691E00E94DB
S1130BC05A0A8EC083E791E00E945A0A89C08AE7D4
S1130BD091E00E945A0A84C08091A4019091A501D9
S1130BE08230910519F183309105E9F1019709F0FB
S1130BF077C08091040190910501823091052CF019
S1130C0001979093050180930401809105018F93CE
S1130C10809104018F9380E891E09F938F930E94C9
S1130C20440A0F900F900F900F905AC080910801C2
S1130C3090910901843191052CF402969093090155
S1130C4080930801809109018F93809108018F930B
S1130C5080E891E09F938F930E94440A0F900F9035
S1130C600F900F903DC080910601909107018C3345
S1130C7091052CF4049690930701809306018091CA
S1130C8007018F93809106018F9380E891E09F93F1
S1130C908F930E94440A0F900F900F900F9020C0E2
S1130CA089E891E00E945A0A80E090E008C0FC01C3
S1130CB0EE0FFF1FE15DFC4F118210820196853219
S1130CC09105ACF31092A1011092A0011092A3011E
S1130CD01092A20181E090E090930B0180930A01AD
S1130CE0DF91CF9108950E94B4040E94DB0481E057
S1130CF090E090930B0180930A011092A10110924D
S1130D00A001089580E00E9445080E94A8040E9462
S1130D10F3030E94CB037894E1ECF0E080818068D7
S1130D20808380E88AB98BB96CE370E08FE392E04A
S1130D300E947E006CE370E08FE392E00E94C200A8
S1130D408091A2019091A301892B51F01092A301EB
S1130D501092A2016CE370E08FE392E00E94C20063
S1130D6080910A0190910B01892B11F40E94730662
S1130D708091A4019091A50182309105A1F0833066
S1130D809105E1F00197E1F620910401309105010C
S1130D900CE310E04BE350E060E070E08FE392E09E
S1130DA00E944601CDCF40910801509109016CE3A6
S1130DB070E08FE392E00E949902C2CF4091060155
S1130DC0509107016CE370E08FE392E00E941C02F3
S1130DD0B7CFCF93C82F873069F420917D0330912A
S1130DE07E0347E050E061E070E087E991E00E9413
S1130DF0100A2AC08A3019F48DE00E94E906809115
S1130E00F8018823D9F08091FB019091FC01FC0149
S1130E10E350FE4FC08301968F739078992324F496
S1130E200197806C9F6F01969093FC018093FB0166
S1130E30E1ECF0E080818062808306C08091C00094
S1130E4085FFFCCFC093C60080E090E0CF91089569
S1130E50EF92FF920F931F93CF93DF932091F601AC
S1130E603091F701232B09F0A3C08C01C6EAD1E02D
S1130E709091C0009923E4F78091C00084FDABC039
S1130E808091C00083FDAAC08091C6008D3009F412
S1130E908AE08A3059F48883B8010E94E90686EA18
S1130EA091E09093F7018093F60182C0893009F4B0
S1130EB080E290EE980F9F3510F0803A98F091E020
S1130EC0C53FD90729F4B80187E00E94E906D0CFCD
S1130ED07E01EFEFEE1AFE0A8883B8010E94E9064C
S1130EE0E701C6CF823119F130F4833009F479C0B7
S1130EF0883049F0BDCF873109F44EC08F3719F0DF
S1130F008531B9F1B5CFF1E0C63ADF0709F008F44D
S1130F10AFCFB80188E00E94E906B80180E20E94E0
S1130F20E906B80188E00E94E9062197A1CFB8013B
S1130F308DE00E94E9060F2EF6EAEF2EF1E0FF2E77
S1130F40F02D06C0B801F70181917F010E94E906E6
S1130F50EC16FD06B8F38CCFB80188E00E94E906D0
S1130F60B80180E20E94E906B80188E00E94E9061F
S1130F702197F1E0C63ADF0709F070F779CFB8019D
S1130F8088E00E94E906B80180E20E94E906B801FF
S1130F9088E00E94E906219781E0C63AD80709F063
S1130FA008F466CFFE0131978081803241F760CF2B
S1130FB0E091F601F091F701CF0101969093F701CA
S1130FC08093F60180818A3021F41092F701109207
S1130FD0F60190E008C08EEF9FEF05C08FEF9FEF02
S1130FE002C08FEF9FEFDF91CF911F910F91FF9080
S1130FF0EF9008951F920F920FB60F9211242F9322
S11310003F938F939F93EF93FF932091F901309136
S1131010FA018091FB019091FC012817390751F1E5
S1131020E091F901F091FA01E350FE4F8081809341
S1131030C6008091F9019091FA0101968F7390781E
S1131040992324F40197806C9F6F01969093FA0181
S11310508093F9012091F9013091FA018091FB010B
S11310609091FC012817390729F4E1ECF0E0808124
S11310708F7D8083FF91EF919F918F913F912F916D
S11310800F900FBE0F901F90189597E69093C40091
S113109098E19093C100E9E7F3E026E131E033837E
S11310A022833183208335832483882321F081E0C4
S11310B08093F801789408950E94CD0808F481E0A3
S11310C008950E94F90888F09F5798F0B92F99273E
S11310D0B751B0F0E1F0660F771F881F991F1AF01F
S11310E0BA95C9F714C0B13091F00E941309B1E068
S11310F008950C941309672F782F8827B85F39F067
S1131100B93FCCF3869577956795B395D9F73EF4B7
S113111090958095709561957F4F8F4F9F4F08955F
S1131120E89409C097FB3EF490958095709561957D
S11311307F4F8F4F9F4F9923A9F0F92F96E9BB2733
S11311409395F695879577956795B795F111F8CFAF
S1131150FAF4BB0F11F460FF1BC06F5F7F4F8F4F1A
S11311609F4F16C0882311F096E911C0772321F010
S11311709EE8872F762F05C0662371F096E8862FA8
S113118070E060E02AF09A95660F771F881FDAF7FF
S1131190880F9695879597F90895990F0008550F2C
S11311A0AA0BE0E8FEEF16161706E807F907C0F0E9
S11311B012161306E407F50798F0621B730B840BF1
S11311C0950B39F40A2661F0232B242B252B21F4CB
S11311D008950A2609F4A140A6958FEF811D811D6B
S11311E0089557FD9058440F551F59F05F3F71F013
S11311F04795880F97FB991F61F09F3F79F087957A
S11312000895121613061406551FF2CF4695F1DF02
S113121008C0161617061806991FF1CF8695710592
S1131220610508940895E894BB2766277727CB01C6
S113123097F908950E94CD0808F48FEF08950E944D
S113124032090C94A3090E94950938F00E949C0964
S113125020F0952311F00C948C090C94920911241C
S11312600C9414090E94F10870F3959FC1F3950F33
S113127050E0551F629FF001729FBB27F00DB11D16
S1131280639FAA27F00DB11DAA1F649F6627B00DA6
S1131290A11D661F829F2227B00DA11D621F739F8F
S11312A0B00DA11D621F839FA00D611D221F749F9D
S11312B03327A00D611D231F849F600D211D822FE4
S11312C0762F6A2F11249F5750409AF0F1F088230B
S11312D04AF0EE0FFF1FBB1F661F771F881F915038
S11312E05040A9F79E3F510580F00C948C090C9452
S11312F014095F3FE4F3983ED4F386957795679598
S1131300B795F795E7959F5FC1F7FE2B880F911D61
S11313109695879597F9089597F99F6780E870E007
S113132060E008959FEF80EC089500240A94161657
S1131330170618060906089500240A9412161306BF
S1131340140605060895092E0394000C11F488234D
S113135052F0BB0F40F4BF2B11F460FF04C06F5F69
S11313607F4F8F4F9F4F08958F929F92AF92BF925E
S1131370CF92DF92EF92FF92CF93DF93EC016881DB
S113138079818A819B81611571058105910521F41B
S113139064E279ED8BE597E02DE133EF41E050E035
S11313A00E941B0D49015A019B01AC01A7EAB1E45B
S11313B00E943A0D6B017C01ACEEB4EFA5019401DF
S11313C00E94480DDC01CB018C0D9D1DAE1DBF1D7F
S11313D0B7FF03C00197A109B04888839983AA8302
S11313E0BB839F77DF91CF91FF90EF90DF90CF90F9
S11313F0BF90AF909F908F9008950E94B409089574
S113140080E091E00E94B4090895A0E0B0E08093E8
S1131410000190930101A0930201B0930301089588
S1131420A0E0B0E0E6E1FAE00C94530D5B014A0160
S11314307901D90113962C9121FF1DC0C0E0D0E0A1
S1131440C815D905D9F08C016C01CA0CDB1CC80184
S11314500C151D0571F00F5F1F4FD7011896ED9104
S1131460FC911997B701DC018C910995892B79F3CB
S113147005C02196E5CF80E090E001C0CE01CDB754
S1131480DEB7ECE00C946F0DA0E0B0E0EAE4FAE023
S11314900C945D0DAE014B5F5F4FFA016191719148
S11314A0AF0180917B0390917C030E948A0AE2E061
S11314B00C94790D0F931F93CF93DF93E0917B03EB
S11314C0F0917C03238121FF1BC08C01D0E0C0E09C
S11314D0F80181918F0160917B0370917C03DB01A2
S11314E01896ED91FC911997882331F00995892B71
S11314F079F3DFEFCFEFECCF8AE00995892B19F070
S11315008FEF9FEF02C08D2F9C2FDF91CF911F9102
S11315100F910895ABE0B0E0E0E9FAE00C944D0DD2
S11315206C017B018A01FC0117821682838181FF91
S1131530CCC1CE0101963C01F6019381F70193FDE4
S1131540859193FF81917F01882309F4BAC1853283
S113155039F493FD859193FF81917F01853229F4BC
S1131560B60190E00E94810CE7CF912C212C312C04
S1131570FFE1F315D8F08B3279F038F4803279F04A
S11315808332A1F4232D20611DC08D3261F080339C
S113159069F4232D216016C0832D8260382EE32D3B
S11315A0E4603E2E2AC0F32DF8601DC037FC2DC028
S11315B020ED280F2A3040F08E32B9F436FC81C178
S11315C0232D2064322E19C036FE06C08AE0989E70
S11315D0200D1124922E11C0EAE02E9E200D11241C
S11315E0222EF32DF0623F2E08C08C3621F4832D79
S11315F08068382E02C0883641F4F70193FD859146
S113160093FF81917F018111B3CF982F9F7D9554D2
S1131610933028F40C5F1F4F9FE399830DC08336EA
S113162031F0833771F0833509F059C021C0F801D6
S1131630808189830E5F1F4F88248394912C5301EA
S113164013C02801F2E04F0E511CF801A080B180B4
S113165036FE03C0692D70E002C06FEF7FEFC50155
S11316600E94760C4C018201F32DFF773F2E16C0A9
S1131670280122E0420E511CF801A080B18036FE00
S113168003C0692D70E002C06FEF7FEFC5010E94B7
S11316906B0C4C01F32DF0683F2E820133FC1BC010
S11316A0822D90E088169906B0F4B60180E290E0AD
S11316B00E94810C2A94F4CFF50137FC859137FE02
S11316C081915F01B60190E00E94810C21102A945F
S11316D021E0821A91088114910471F7E8C08436DC
S11316E011F0893641F5F80137FE07C06081718138
S11316F0828193810C5F1F4F08C060817181072E26
S1131700000C880B990B0E5F1F4FF32DFF763F2EB5
S113171097FF09C090958095709561957F4F8F4F85
S11317209F4FF0683F2E2AE030E0A3010E94BD0CD9
S1131730882E861845C0853731F4232D2F7EB22E8E
S11317402AE030E025C0932D997FB92E8F36C1F061
S113175018F4883579F0B5C0803719F0883721F04E
S1131760B0C0E92FE061BE2EB4FE0DC0FB2DF460C5
S1131770BF2E09C034FE0AC0292F2660B22E06C02F
S113178028E030E005C020E130E002C020E132E092
S1131790F801B7FE07C060817181828193810C5F7B
S11317A01F4F06C06081718180E090E00E5F1F4F83
S11317B0A3010E94BD0C882E8618FB2DFF773F2EB7
S11317C036FE0DC0232D2E7FA22E891458F434FE2C
S11317D00BC032FC09C0832D8E7EA82E05C0B82C08
S11317E0A32C03C0B82C01C0B92CA4FE0FC0FE0169
S11317F0E80DF11D8081803321F49A2D997EA92E64
S113180009C0A2FE06C0B394B39404C08A2D86789E
S113181009F0B394A3FC11C0A0FE06C0B21488F46E
S1131820280C922C9B180EC0B21460F4B60180E20E
S113183090E00E94810CB394F7CFB21418F42B18E3
S113184002C0982C212CA4FE10C0B60180E390E0C5
S11318500E94810CA2FE17C0A1FC03C088E790E09F
S113186002C088E590E0B6010CC08A2D867859F054
S1131870A1FE02C08BE201C080E2A7FC8DE2B601AA
S113188090E00E94810C891438F4B60180E390E062
S11318900E94810C9A94F7CF8A94F301E80DF11D0C
S11318A08081B60190E00E94810C8110F5CF222046
S11318B009F442CEB60180E290E00E94810C2A94A1
S11318C0F6CFF6018681978102C08FEF9FEF2B96AA
S11318D0E2E10C94690DFC01059061507040011027
S11318E0D8F7809590958E0F9F1F0895FC01615045
S11318F0704001900110D8F7809590958E0F9F1F2E
S113190008950F931F93CF93DF93FB01238121FD50
S113191003C08FEF9FEF2CC022FF16C04681578172
S1131920248135814217530744F4A081B1819D017C
S11319302F5F3F4F318320838C93268137812F5F24
S11319403F4F3783268314C08B01EC01FB010084D5
S1131950F185E02D0995892BE1F6D80116968D9134
S11319609C911797019617969C938E931697CE0188
S1131970DF91CF911F910F910895FA01AA27283082
S113198051F1203181F1E8946F936E7F6E5F7F4F48
S11319908F4F9F4FAF4FB1E03ED0B4E03CD0670FC4
S11319A0781F891F9A1FA11D680F791F8A1F911D17
S11319B0A11D6A0F711D811D911DA11D20D009F467
S11319C068943F912AE0269F11243019305D3193A9
S11319D0DEF6CF010895462F4770405D4193B3E092
S11319E00FD0C9F7F6CF462F4F70405D4A3318F039
S11319F0495D31FD4052419302D0A9F7EACFB4E0EA
S1131A00A6959795879577956795BA95C9F70097A1
S1131A106105710508959B01AC010A2E0694579542
S1131A20479537952795BA95C9F7620F731F841F99
S1131A30951FA01D0895052E97FB1EF400940E9487
S1131A40320D57FD07D00E94840D07FC03D04EF4DD
S1131A500C94320D50954095309521953F4F4F4F42
S1131A605F4F089590958095709561957F4F8F4F46
S1131A709F4F08950E94A60DA59F900DB49F900DB1
S1131A80A49F800D911D11240895B7FF0C943A0D65
S1131A900E943A0D821B930B08952F923F924F920E
S1131AA05F926F927F928F929F92AF92BF92CF92EA
S1131AB0DF92EF92FF920F931F93CF93DF93CDB7F3
S1131AC0DEB7CA1BDB0B0FB6F894DEBF0FBECDBF6B
S1131AD009942A88398848885F846E847D848C843C
S1131AE09B84AA84B984C884DF80EE80FD800C8145
S1131AF01B81AA81B981CE0FD11D0FB6F894DEBF28
S1131B000FBECDBFED010895A1E21A2EAA1BBB1B87
S1131B10FD010DC0AA1FBB1FEE1FFF1FA217B307B5
S1131B20E407F50720F0A21BB30BE40BF50B661FCB
S1131B30771F881F991F1A9469F76095709580958F
S1131B4090959B01AC01BD01CF010895A29FB00106
S1131B50B39FC001A39F700D811D1124911DB29FDD
S1111B60700D811D1124911D0895F894FFCF7E
S1131B6E0100000004000A000A0001009D623DC24B
S1131B7EFD02DD2202000000000300000000E90661
S1131B8E28070000496E76616C696420496E6465AD
S1131B9E78000A205374617274205369676E616C05
S1131BAE2000256420000A20454E44205369676EA8
S1131BBE616C2000504F574552204F4E2F4F4646D2
S1131BCE0041004200430055502025640A004C4554
S1131BDE465400434952434C450052494748540029
S1131BEE444F574E2025640A004552524F52204FFF
S1131BFE434355524544002A72696E672A0A00000F
S9030000FC
